:020000040000FA
:0600000002010A022D14AA
:03002B0002279118
:03005300022D8AF1
:03006B0002276207
:10008300022BC3E5C754F84401F5C77901220000E8
:100093000080FB120086B900030200F4E4792178A2
:1000A30008B800028004F709D8FCE479297802B87B
:1000B30000028004F709D8FCE4900281781D790AD4
:1000C3008002F0A3D8FCD9FA900B9DAA82AB83904F
:1000D300013A78A479038015E493A3AC82AD838AB3
:1000E300828B83F0A3AA82AB838C828D83D8E9D9D8
:1000F300E77582E27583DE740412011C75829175C3
:100103008300740012011C75D00075813F7518813E
:10011300751902759F00020096C09FF59FE473D086
:100123009F22D083D082C09FE493C0E0740193C028
:10013300E0740293F59F22FFFF0A486F7020495035
:100143007636000843726561746520636F6E6E6571
:100153006374696F6E001857726974652F52656313
:10016300656976652049507636205061636B657406
:100173007300000A4F4D4120426F6F7473747261B4
:1001830070205365727665720002BF910100007C96
:100193009102B9910100009F0B02AB910300008C07
:1001A3000202B791010000A00B02B991010000A95E
:1001B3000B0236900200009C0202B791010000AAD4
:1001C3000B02B991010000BC0B029B9102000000DD
:1001D3000002B591030000BC0202B791010000BD0B
:1001E3000B02B991010000D90B02A391030000C8CF
:1001F3000202B791010000DA0B0200BB040000FF0A
:10020300FFC59101E803053F100A0A00FFFF484FAD
:100213005020556269717569746F757320532E4C44
:100223002E00484F5020457874656E646564003332
:10023300320039350001000500740E8813FA00F40A
:1002430001550008070000FF000130750302010695
:10025300000000000000000000000000000000009B
:10026300000000000000000000000000FFFF060087
:10027300800CE803FF0000B40000280028002830A9
:1002830075A000A000A000A00000080008E001F095
:10029300001000100010001000100010005000505B
:1002A30000500010001000D0070000000000000FF5
:1002B3000001000500307507001000010081FF00F8
:1002C300000000FF7F0D9D0D850DFF020202080255
:1002D3005000A0000000E80302BF910100009191CB
:1002E30002B991010000310D02B3910100000E0724
:1002F30002B991010000320D02B1910100002407FF
:1003030002B991010000330D02AF910100002607ED
:1003130002B991010000340D02AD910800002707D6
:1003230002B991010000350D02A991010000360DBB
:10033300FF0100FF2002BF91010000949102B991D7
:100343000100009A0D02A791000000000002B59180
:100353000300007407A313A313A313A313A313A3EB
:1003630013A313A313A313A313A313A313A3137904
:100373001691167316000020418096184B000080DA
:100383003F010000006D4EC64139300000000000FF
:10039300803031323334353637383941424344457E
:1003A3004600286E756C6C20706F696E74657229D7
:1003B300003031323334353637383961626364653E
:1003C30066003F3F3F000000807FF9021550B743AE
:1003D300BA5100E7DB2E0000A0401201257FB503D0
:1003E3001201259AB503120125BCB503120125DBC1
:1003F300B503120125F7B5031201250EBA03120145
:100403002591BA03120125C1CA03120125CCCA03DF
:10041300120125D3CA03120125DCCA0312012524C4
:10042300CB0312012531CB031201253ACB03120171
:10043300257FCB0312012598CB03120125D8CB03CB
:1004430012012514CC03120125E4D0031201252D3A
:10045300D10312012583DE041201257DAC041201B0
:100463002592AF041201250498041201252598044E
:100473001201257E98041201251199041201257C8D
:100483009A04120125409C04120125499C0412017F
:1004930025529C04120125609C041201257D9C04B5
:1004A300120125889C0412012528CE041201253847
:1004B300CE0412012579CE0412012584CF04120142
:1004C3002590E8031201259AE803120125D8E803D1
:1004D30012012521E9031201255BE903120125B568
:1004E300E903120125D6E903120125DFE90312010D
:1004F300252CEA0312012555EA031201255FEA03BD
:10050300120125CBEA031201255DEB03120125A796
:10051300EB03120125DDEB0312012569EC03120144
:1005230025AAEC03120125E1EC03120125F3EC03E8
:1005330012012512ED031201251BED03120125E320
:10054300ED0312012559D60412012550D7041201D7
:10055300256AD7041201253EC60412012582C6046A
:10056300120125B8C60412012586C804120125E02C
:10057300C804120125E9C8041201252AE504120161
:100583002540E5041201254AE504120125FEA004D5
:1005930012012513A104120125C6A1041201250687
:1005A300A2041201251FA2041201255AA20412015A
:1005B30025A7A204120125D9A2041201251BA30415
:1005C30012012526A504120125C1DB04120125E928
:1005D300DB0412012518DC0412012530DC041201AE
:1005E3002572DC0412012554BD0412012567BD04E4
:1005F300120125E3BD0412012502BE041201257B6D
:10060300BE041201251ABF0412012580BF04120182
:10061300251BC0041201254FC00412012569C00423
:1006230012012581F803120125E7F803120125566B
:10063300FC03120125404A001201256C4A001201F5
:1006430025BF4A00120125AD4B001201251C4D00A8
:100653001201257E4E00120125104F001201256361
:100663004F001201252E5600120125F55C001201E0
:1006730025155D00120125645D001201259A5D00B8
:10068300120125F75D00120125A85E00120125F76E
:100693005E00120125315F00120125D25F001201B5
:1006A300253C600012012551E6041201258A6000F1
:1006B300120125EF62001201259064001201254406
:1006C3006500120125D765001201255C6600120141
:1006D30025816600120125D769001201255D6A0094
:1006E300120125906B00120125CA6B00120125FF30
:1006F3006B00120125BF6D001201251C6E00120153
:1007030025656E00120125D06E00120125416F0090
:10071300120125736F001201258B6F00120125D47E
:100723007000120125E47000120125FF710012010F
:10073300252172001201255772001201250B740046
:10074300120125987400120125D77400120125FBAC
:100753007500120125E6E004120125F7E0041201F9
:10076300259CE104120125A7E604120125E6E6040F
:100773001201251EE00412012582E004120125CD99
:10078300E004120125DDE004120125EA7F001201D5
:10079300258BE3041201259BE304120125B0E30436
:1007A30012012518E404120125BDDA0412012542C1
:1007B300DB04120125A8DB04120125B2D9041201BE
:1007C30025D9D9041201252FDA041201257FDA0471
:1007D30012012533A5041201254AA504120125C4DB
:1007E300A504120125A8A6041201257FA80412015D
:1007F3002511B00412012587B00412012530B2047B
:10080300120125ADB204120125BDDC041201253B02
:10081300DD0412012573DD041201256FD7031201D4
:10082300258ED70312012535D80312012570D8036D
:1008330012012558D903120125EBDA03120125030E
:10084300DB031201250DDC03120125E6DC03120193
:10085300253EDD0312012503C904120125ABCB0498
:1008630012012587CD0412012594CD04120125BB65
:10087300CD04120125BDFA02120125E5FA02120187
:100883002529FB0212012559FB02120125D4FB0283
:10089300120125DEFC0212012531FE02120125366A
:1008A300FE021201256CFE02120125A6FE021201B0
:1008B30025A89C031201254BA1031201256DA20358
:1008C300120125B9A40312012513A503120125174B
:1008D300BA04120125CABB041201259EBC041201ED
:1008E30025DCBC0412012547DD0312012559DF0372
:1008F30012012503E10312012508E1031201250A70
:10090300E1031201250CE10312012548E103120161
:1009130025DC84041201257F8504120125A38604A6
:100923001201257588041201257A8804120125878E
:10093300D103120125BBD3031201255FD503120195
:100943002564D50312012566D503120125C0D503FD
:100953001201252ED703120125B39303120125BEDD
:100963009303120125CF930312012533950312013B
:1009730025CA9603120125379903120125A5990368
:10098300120125AA9903120125AC9903120125F539
:100993009903120125369A03120125F0E20212018E
:1009A300253AE3021201259FE60212012506E80219
:1009B30012012589E8021201250FEA02120125849A
:1009C300EA02120125D1EA02120125A9EB02120162
:1009D30025CFEC02120125E6C3031201253AC40315
:1009E30012012532C7031201254FC8031201255CEA
:1009F300D304120125AED30412012538D404120105
:100A0300259FD404120125A0FD03120125CAFD036D
:100A130012012598FE0312012573FF03120125BA63
:100A2300F70112012581F801120125B8F80112011D
:100A330025E2F80112012542F90112012598F90175
:100A4300120125FDF90112012595FA01120125A4D0
:100A5300FB011201253BFD01120125C8FD01120115
:100A6300252FFE0112012546FE0112012560FF011B
:100A73001201259EFF0112012511EE031201259794
:100A8300F203120125E7BA0212012568BE02120120
:100A930025F0BF0212012547C00212012566C002DC
:100AA300120125E4C0021201257AC2021201255F58
:100AB300C3021201256DC70212012543C8021201A8
:100AC300250080021201256C8102120125AC8402EB
:100AD3001201250C8502120125228902120125EE3D
:100AE3008902120125918B02120125268C02120123
:100AF30025878C02120125CC8D021201253D8E0221
:100B03001201251B8F0212012557E8011201258DC1
:100B1300E801120125B4E901120125E0EB011201FC
:100B2300252EEC0112012523EF0112012537F001D7
:100B330012012586F20112012593F301120125A466
:100B4300F501120125DDF6011201255CF701120101
:100B530025F8E2031201252BE5031201256BE503BA
:100B6300120125DAE503120125BAE6031201250075
:100B73008004120125CE800412012555DF041201E1
:100B830025FDCF0412012514D00412012545D004FC
:100B930012012580D004120125AAD004120125D404
:100BA300D004120125EBD00412012502D104120155
:100BB3002519D10412012542D10412012555D1046E
:100BC3001201256BD1041201257ED104120125A542
:100BD300D1041201250080031201250481031201AF
:100BE300253C81031201255F81031201256A8103DC
:100BF3001201258D81031201259C820312012571A7
:100C03008303120125EC830312012574840312016B
:100C130025AF8403120125E684031201257485039D
:100C23001201254D8603120125AD8603120125B855
:100C330086031201253787031201253A8703120120
:100C4300253D8703120125CC8703120125CF870396
:100C5300120125FF87031201252988031201251795
:100C63008903120125C9890312012547930412013F
:100C7300256F93041201259D9304120125D4930437
:100C83001201253294041201257D9404120125C812
:100C930094041201250895041201254E95041201AE
:100CA300257C9504120125399604120125439604E7
:100CB3001201255096041201258396041201254F33
:100CC30097041201255B97041201257397041201FF
:100CD300257D9704120125ACDD04120125BADD043C
:100CE300120125D2DD04120125EADD041201255B80
:100CF3008F02120125079002120125829002120130
:100D030025A39102120125DF910212012588920287
:100D13001201256F9302120125D394021201252A91
:100D23009502120125AB95021201259B9602120131
:100D330025E896021201256E9702120125A097025B
:100D4300120125B49902120125F699021201251404
:100D53009A02120125979A021201256B9B02120136
:100D630025339C02120125C3BC0312012596BD0342
:100D73001201253FBE0312012592BE031201254233
:100D8300BF03120125CEBF03120125BAC00312010E
:100D930025E9C003120125FCC10312012544C20346
:100DA30012012519C30312012555C303120125712D
:100DB300C303120125A6E404120125E4A8041201C9
:100DC30025FAA80412012520A9041201253CAA042E
:100DD30012012546AA041201257BAB0412012573D7
:100DE300AC041201255AF3031201258AF4031201FC
:100DF30025BDF40312012507F503120125CEF603E1
:100E030012012568D801120125D2D801120125311A
:100E1300DA0112012541DA011201256EDA0112010C
:100E230025C5DA011201256EDB0112012575DC01EE
:100E33001201253FDD011201259FDE01120125E28A
:100E4300DE0112012587DF01120125D4DF01120122
:100E530025FADF0112012508E2011201250DE20145
:100E630012012512E4011201255FE401120125D2CA
:100E7300E40112012505E501120125A7E50112018F
:100E83002550E60112012588E6011201258BE601B2
:100E9300120125D3E60112012513E7011201256A88
:100EA300E7011201256BC30412012583C304120158
:100EB30025CBC304120125E1C30412012528C40470
:100EC3001201253CC504120125C9C50412012514CC
:100ED300C604120125A43100120125B0310012010C
:100EE30025EB3100120125303200120125F03200CA
:100EF300120125763300120125A23300120125DBEE
:100F03003300120125193600120125FD37001201A5
:100F130025E33900120125263B00120125743D000B
:100F2300120125863E00120125D13F00120125E161
:100F33004000120125FE4000120125394100120133
:100F4300255B4100120125BE41001201257F4600A9
:100F53001201251447001201256547001201258C53
:100F63004700120125DE4700120125FC470012014C
:100F730025564800120125554900120125D949007B
:100F8300120125B08904120125BA8904120125FD35
:100F93008904120125188A04120125A88A04120162
:100FA30025D08A041201250D8B04120125448B04DC
:100FB3001201256D8B04120125E28B04120125F722
:100FC3008B041201250C8C041201253D8C041201A3
:100FD30025518C04120125768C04120125B08C0452
:100FE300120125DC8C04120125148D04120125BE87
:100FF3008D04120125078E04120125318E0412017E
:10100300255C8E0412012599D8041201251DD602F0
:101013001201254BD60212012599D7021201257917
:10102300D80212012598D80212012515D9021201FE
:101033002558D902120125AEDA021201256FDB020F
:10104300120125F6DD0212012597DE021201258D1C
:10105300DF021201258AE002120125E4E1021201F6
:10106300256FE202120125FED40412012567D5047F
:10107300120125BBD504120125E2D5041201251363
:10108300D604120125919C04120125FE9C04120131
:1010930025459D041201255D9E04120125599F04D7
:1010A3001201253CA0041201259CA503120125DE93
:1010B300A503120125B0A60312012589A703120176
:1010C3002583A80312012565A903120125CEA903CF
:1010D30012012584AA03120125F8AA03120125642B
:1010E300AB031201258DAB0312012507AC031201DB
:1010F30025A0AC0312012505AD031201251AAD038A
:1011030012012560AD0312012579AD03120125DE1D
:10111300AD03120125E1AD0312012572C0041201D2
:10112300259AC004120125D8C00412012596C104D2
:10113300120125FDC10412012519C2041201254122
:10114300C20412012571C20412012580C2041201D6
:1011530025FDC20412012523C304120125ECB601A7
:101163001201258AB801120125A5BA01120125E150
:10117300BA011201250EBB01120125F3BB011201B5
:10118300253ABC011201257EBC0112012590BC0148
:10119300120125D0BC01120125FDBC011201254815
:1011A300BD0112012588BD01120125B6BD01120141
:1011B3002508BE0112012598BE0112012536C10181
:1011C3001201254CC3011201258AC3011201251BFB
:1011D300C50112012560C501120125D7C501120100
:1011E3002521C60112012547C6011201253A8A03AA
:1011F300120125B98A031201257B90031201258A66
:101203009103120125F2920312012589930312011E
:1012130025C691011201250F92011201253C92016D
:101223001201256F92011201257C9201120125887A
:1012330092011201259A9201120125819301120153
:1012430025DF9301120125149401120125579501FD
:10125300120125A49501120125C895011201253516
:101263009601120125F39601120125AC9701120193
:1012730025199801120125CB9801120125DB98014C
:10128300120125629901120125219A011201254EAD
:101293009A01120125C79A01120125249B0112010B
:1012A300256E9B01120125049C01120125CF9C018F
:1012B300120125849D01120125F99D011201255A70
:1012C3009E01120125C49E01120125FD9E011201FA
:1012D300259F9F01120125AFA001120125EFA00157
:1012E3001201250CA1011201252BA1011201257266
:1012F300A10112012597A101120125C4A101120127
:10130300253EA2011201257FA201120125A3A301FB
:1013130012012553A401120125AAA40112012514C7
:10132300A5011201252DA501120125207600120128
:10133300257376001201257F76001201255477006C
:101343001201257B7700120125B6770012012522B1
:1013530078001201255E78001201259778001201AA
:1013630025AF78001201250479001201251D7900AB
:10137300120125667900120125797900120125935E
:101383007900120125A97900120125DC7A001201E6
:1013930025237C00120125257D001201251F7E00D7
:1013A300120125FB7F00120125E6C8021201251652
:1013B300C902120125DECC0212012535CE0212012B
:1013C30025FECE021201257ED0021201254FD10245
:1013D3001201258CD102120125AFD102120125ED94
:1013E300D102120125F6D10212012540D2021201C7
:1013F300254AD202120125F4D202120125CDD302CD
:1014030012012521D40212012583D402120125D60B
:10141300D40212012505D50212012542D50212017B
:10142300255FA501120125C6A801120125CCA8013B
:101433001201254EAE01120125C7B2011201259DED
:10144300B60112012586B304120125FCB30412016F
:101453002512B40412012553B4041201258DB404DA
:1014630012012506B50412012541B504120125B464
:10147300B504120125F2B504120125FBB5041201CE
:101483002507B60412012523B6041201254EB6041E
:1014930012012564B604120125A8B604120125849D
:1014A3008E04120125978E04120125B18E041201B8
:1014B30025DA8E041201251D8F041201255C8F0489
:1014C3001201259A8F04120125FF8F04120125149E
:1014D30090041201251F90041201252C900412017F
:1014E300254390041201255190041201255C9004B8
:1014F3001201256890041201257B900412012586B0
:101503009004120125A9900412012550910412019F
:10151300256091041201257A910412012597910403
:10152300120125B39104120125D89104120125E378
:101533009104120125F891041201250C9204120161
:10154300256D9204120125739204120125799204E8
:101553001201257F9204120125979204120125CAD4
:101563009204120125BDAC0212012541AD02120104
:1015730025F0AD021201254FAF0212012570B10211
:101583001201255CB20212012591B202120125B3A8
:10159300B20212012562B3021201255AB5021201E9
:1015A3002583B50212012515B60212012547B6029D
:1015B30012012554B602120125ABB602120125D140
:1015C300B6021201253EB90212012541BA021201E7
:1015D3002599BA021201254C9E02120125569F023B
:1015E3001201253DA00212012547A002120125691F
:1015F300A00212012575A0021201250EA2021201FA
:10160300253DA20212012559A302120125B2A3020C
:1016130012012518A502120125F7A502120125536F
:10162300A602120125C0A602120125FBA602120181
:10163300253AA702120125F3A9021201250DAA02D8
:1016430012012599AA02120125A7AA021201250057
:10165300AB021201250EAB0212012581AB0212016E
:1016630025E5AB021201252FAC021201258FEF02F3
:10167300120125B1EF02120125D7F102120125EC67
:10168300F40212012504F602120125B7F602120133
:101693002599F702120125B7D104120125DCD104E3
:1016A3001201254ED20412012505AE031201250EA7
:1016B300AE0312012517AE03120125EEAE0312018C
:1016C300259FB003120125D5B0031201250FB103E5
:1016D30012012545B1031201257FB103120125B380
:1016E300B103120125DFB10312012528B203120150
:1016F3002562B203120125ABB20312012503B30322
:1017030012012538B30312012593B303120125CD2A
:10171300B3031201251EB40312012554B4031201AD
:10172300258EB403120125BCB403120125DFB403D3
:10173300120125A7E104120125D3E1041201252E8C
:10174300E20412012538E20412012548E2041201E1
:10175300251BE4041201257BD70412012537E70476
:10176300120125F2E2041201257DE704120125F09E
:10177300E60412012552E2041201257CE20412015F
:1017830025E5FF02120125D1E704120125A9E7048B
:10179300120125F2E70412012594E504120125F94B
:1017A300E504120125D8B604120125ACC7011201C4
:1017B30025CFCC01E066701008A3E066700A08A389
:1017C300E066700408A3E06622C3E09608A3E096EF
:1017D30008A3E09608A3E096A2D265D03322C008FE
:1017E300C3E096F50808A3E096420808A3E09642F2
:1017F3000808A3E0964208A2D265D033E508700139
:10180300D3D00822C3E7960809E7960809E79608A4
:1018130009E79622C3E09608A3E09608A3E096089A
:10182300A3E09622C008C3E096F50808A3E0964219
:101833000808A3E096420808A3E09645087001D380
:10184300D00822080808E630E71112210F12185EAB
:10185300080808C64480C618181822181818E97909
:101863009EC608CAC608CBC608CCC6C370207996E4
:10187300CACBCC7019798ECBCC70137986CC700E11
:10188300F9802ACA33CACB33CBCC33CC331930E7F4
:10189300F2CCCBCA3350147004EA30E00DE4CA3AF8
:1018A300CACB3BCBCC3CCC500209C3E913C6CC1802
:1018B3002313C6CB18C6CA18C6F9228A088B098C0B
:1018C3000A8D0B780812190820F01430E72B74FFE7
:1018D300FCFBFA747F8022E4FCFBFA7480801AB468
:1018E3008008BC00F2BB00EF800F50EBF9E4C39A11
:1018F300FAE49BFBE49CFCE499C6CC18C6CB18C65F
:10190300CA18C6F922E4C9C608CAC608CBC6D33367
:101913000308CCC63392F0C3947F402E9418401929
:10192300C9B90704CACBCC225025C309CA33CACBD1
:1019330033CBCC33CC33D9F422F4600DC9CCC313ED
:10194300CB13CBCA13CAD9F6CC22E4FCFBFA22147C
:10195300FCFBFA22E6C33318461846184622E7C3AF
:101963003319471947194722181818E6084608700B
:101973000AE608C3337005E633F42208221919195D
:10198300E7094709700AE709C3337005E733F4220F
:101993000922E6084608C3134608336002E633F417
:1019A30022E7094709C3134709336002E733F422E7
:1019B30012199560251219A4602012195770030299
:1019C3001961080808E76670101819E766700A18A5
:1019D30019E76670041819E76622F4221219956054
:1019E3001C1219A46017121957700712196170019C
:1019F300D322C0D01219617006D0D0B322C32233D0
:101A0300D0D0501430E0F6C3E7960809E7960809EA
:101A1300E7960809E796B32220E0D5E6970809E69A
:101A2300970809E6970809E697B322121995601BF0
:101A33001219A460161219577007121961600CB3BA
:101A430022C0D01219617005D0D022C32233D0D066
:101A5300501330E0EBC3E7960809E7960809E796C9
:101A63000809E7962220E0E4E6970809E6970809C3
:101A7300E6970809E6972200121995604F1219A4F8
:101A83006012E7548066F612196B701112196170B7
:101A93003B090909F4F618F618F618F6221219800C
:101AA300701512195708080860EAE6447FF618769D
:101AB3008018E4F618F6221219576016121961708D
:101AC30012E4F608F608F608E65480F60909091840
:101AD300181822EAC0E0EBC0E0ECC0E0EDC0E0E69D
:101AE30087F0A4FBACF008E687F0A42CFCE435F007
:101AF300FA1809E687F0A42C4B60027401CA35F08A
:101B0300FCE433FB09E687F0D2F7A42CCB35F0FCD9
:101B13001908E687F0A42BCC35F0FBE433FD081954
:101B2300E687F0D2E7A42C4ACB35F0CD3400FC098C
:101B3300E687F0D2E7A42DCC35F0FDE433FA09189B
:101B4300E687F0D2F7A42CCD35F0CA3400FC08E6C2
:101B530087F0D2E7D2F7A42ACC35F07A7E20E70BC0
:101B63000ACB33CBCD33CDCC33CC33CB3350147002
:101B730004ED30E00ED2F1E4CD3DCDCC3CCC3B5076
:101B830005DA05C2F1EB547FC63308E63392F0FB66
:101B9300E73309E733C39A502D2B70190C0D4C4DC5
:101BA30070151806E608C333700D20F10AA2F0136E
:101BB300F6E418800B4024E4F630F002768018F641
:101BC30018F618F68024D33B14501074FFA2F013B8
:101BD300F6187680E418F618F6800FA2F013F618BC
:101BE300E63303F618ECF618EDF6D0E0FDD0E0FC92
:101BF300D0E0FBD0E0FA221219A4604612199560D6
:101C03003DE9687008F618F618F618F6227480672E
:101C1300F7121C2E090909748067F72212199560BF
:101C23001D1219A47005191919801A12196B701F46
:101C3300121980C37003E66733191919400718187E
:101C4300182208080874FFF618F618F618F6221278
:101C530019806017121961702192F01219577019C7
:101C6300501720F014080808090909E7F61819E7BE
:101C7300F61819E7F61819E7F62212195760E6E87D
:101C830069701F0808E62480F608E436F618547FC6
:101C9300B47F0CE654806007F6E418F618F62218B1
:101CA3001822E9C6CC08C6CD08C6CE08C6CFC0E008
:101CB300E8C0E0EAC0E0EBC0E009E9F809E7FA09A7
:101CC300E7FBE6F918E6F8C3EC98ED99EE9AEBC258
:101CD300E7F5F0EFC2E795F0500E600CEBCFFBEAAF
:101CE300CEFAE9CDF9E8CCF8EAA2E7D2E7FAEB338A
:101CF300FB13F5F0EEA2E7D2E7FEEF33FFC5F013D7
:101D0300A2E730E601B313C5F0C3C0E0C0F07F0023
:101D1300C39BFB605E9418600F401D14601AD0E0F3
:101D230023F9D0E0F8021E008AF0E9486003D2F0FC
:101D3300E4AFF0FAF9F8803BEB30E40D89F0EA60A8
:101D430003D2F0E4AFF0F9CAF8EB30E30D88F0EF1B
:101D53006002D2F0AFF0E4CAC9F8EB54076014FB99
:101D6300C3EA13FAE913F9E813F8EF135002D2E0C8
:101D7300FFDBEDD0E0C0E030E739C3E49FFFF5F0CF
:101D8300EC98FC42F0ED99FD42F0EE9AFE42F0D061
:101D9300E0F9D0E0F8E5F0607AE923F9EE20E742D4
:101DA300D8028067C3EF33FFEC33FCED33FDEE3332
:101DB300FE80EAEC28FCED39FDEE3AFED0E023F993
:101DC300D0E0F84002801BC3EE13FEED13FDEC13CD
:101DD300FCEF135002D2E0FF08B800067F7F74FFC8
:101DE300802EEF3350178CF020F00260100CBC00F3
:101DF3000C0DBD00080EBE000408E860DFE933E8FF
:101E030013FFEE2313FE4F4D4C8008E95480FFE48B
:101E1300FEFDFCEE33EF33F47004FCFD7E80D0E076
:101E2300FBD0E0FAD0E0F8D0E0CFC618CEC618CD8C
:101E3300C618CCC6F9221219957004181818221264
:101E430019A4700D74FFF61819F61819F61819F677
:101E530022E7548066F6121957700F12196170F059
:101E630014F608F608F608F680D1121961700CF61C
:101E730008F608768008E6447F80EC121983700C1C
:101E830012196E60BFE65480F6E480BB12196E70BF
:101E93000519191980A5E869700C763F1876801822
:101EA300F618F6E8F922E6CDC0E018ECC0E0E63318
:101EB300CD33CDD313F6E719FCE7191933CC33C36C
:101EC300947F400ECD9D502408E65480F6E418F626
:101ED300800FF4043D14501408E6447FF61876800E
:101EE300E418F618F6D0E0FCD0E0FD22CCD313CCF6
:101EF300FD18E4C6CBC0E018E4C6CAC0E00808ED8C
:101F030008C633E613F618E433C675F003C3CA975D
:101F1300CA09CB97CB199C40047D08802EBD0003D2
:101F2300021FE216B6FF050606081618C3CA33CA0F
:101F3300CB33CB33CA27CA09CB37CB193CC37D0874
:101F4300803E187D0820E75CC633C6CA33CACB334C
:101F5300CB33DDF1D5F0EB30E77BCA97CA09CB97DA
:101F63004ACB199C406F4B7025E620E02180661810
:101F73007D08C3CA97CA09CB97CB199CD3C633C66E
:101F8300CA33CACB33CB3350C9DDE7D5F0E1D3E451
:101F9300C636C608C636C608C636C608C636C61806
:101FA30018188031C3CA97CA09CB97CB199CB34081
:101FB30097C633C6CA33CACB33CB33DD34D5F02E01
:101FC300C6A2E0C640C8CA27CA09CB37194A70BEA1
:101FD300CB3CB480B90808E63308E633601F181811
:101FE30018D0E0FAD0E0FBD0E0FCD0E0FD22187D71
:101FF30008CA27CA09CB37CB193CD3808013F618FC
:10200300E4B67F11F618B6FF0EF618C60470D208B0
:1020130008768080CAF618F618F680C5080808EA1C
:10202300C0E0EBC0E086F0E7A4FA180986F0E7A465
:102033002AFA180986F0E7A42AFA180986F0E7A411
:102043002AFA1986F0E7A4FBE5F02AFA190886F0C4
:10205300E7A42BFBE5F03AFA190886F0E7A42BFB7B
:10206300E5F03AFA18180986F0E7A4C5F02BFBE46B
:102073003AFA1908E7C5F0C6A426F6E5F03BFBE4F7
:102083003AFA1886F0E7A4F6E5F00826F6E43B08EA
:10209300F6E43A08F6D0E0FBD0E0FA22E4CFC0E061
:1020A300E4CEC0E0E4CDC0E0E4CCC0E075F020C3F2
:1020B300E633F608E633F608E633F608E633F618B1
:1020C3001818EC33FCED33FDEE33FEEF33FFC3ECB6
:1020D3009709ED9709EE9709EF97191919400FFF23
:1020E300EC97FC09ED97FD09EE97FE191906D5F05B
:1020F300BEECF709EDF709EEF709EFF7191919D057
:10210300E0FCD0E0FDD0E0FED0E0FF22181818E498
:10211300C396F608E496F608E496F608E496F622E3
:102123006016080808C6C313C618C613C618C61314
:10213300C618C613C6D5E0EA22700908080822604B
:1021430016181818C6C333C608C633C608C633C61E
:1021530008C633C6D5E0EA22E627F60809E637F6CD
:102163000809E637F60809E637F622E026F608A35B
:10217300E036F608A3E036F608A3E036F622E026BA
:10218300F008A3E036F008A3E036F008A3E036F049
:1021930022C3E697F60809E697F60809E697F608D4
:1021A30009E697F622C3E0C696F608A3E0C696F6BC
:1021B30008A3E0C696F608A3E0C696F622C3E09607
:1021C300F008A3E096F008A3E096F008A3E096F0E9
:1021D30022E056F608A3E056F608A3E056F608A355
:1021E300E056F622E056F008A3E056F008A3E056C6
:1021F300F008A3E056F022E647F60809E647F6089A
:1022030009E647F60809E647F622E046F608A3E0A2
:1022130046F608A3E046F608A3E046F622E0F608F1
:10222300A3E0F608A3E0F608A3E0F622E6F008A38D
:10223300E6F008A3E6F008A3E6F022E0FAA3E0FB49
:10224300A3E0FCA3E0FD22EAF0A3EBF0A3ECF0A3F0
:10225300EDF022CAC0E0E6F0A308DAFAD0E0FA22F1
:10226300CAC0E0E0A3C582CCC582C583CDC583F0D7
:10227300A3C582CCC582C583CDC583DAE6D0E0CAC7
:1022830022C3E498F8E499F91222C58026C3E49A9C
:10229300FAE49BFBE920E7E91222C5E498F8E49904
:1022A300F922C3E498F8E499F91222C5E498F8E412
:1022B30099F9C3E49AFAE49BFB22EB20E7CFE920E8
:1022C300E7E0B90010BB0008E88AF084F8AAF0221E
:1022D300E4FBC8FA22EB70227B10C833C8C933C9A8
:1022E300335007C39AC3DBF280069A50012ADBEA14
:1022F300C833F4C8C933F4C9FA2275F008E4C83303
:10230300C8C933C933C99AC99B5004C92AC93BD523
:10231300F0ECFBC833F4C8E4C9FA22600D08C6A286
:10232300E713C618C613C6D5E0F322600C08C6C36C
:1023330013C618C613C6D5E0F422700422600D1824
:10234300C6C333C608C633C6D5E0F4182225181011
:10235300AF08F518400215198008F5184002151941
:10236300D2AF22C0D0251810AF08F51850020519B6
:102373008008F51850020519D2AFD0D0222518F5E0
:102383008210AF08F518400215198008F5184002AD
:102393001519D2AF851983222518F582E43519F56D
:1023A3008322E4732518C582C0E0E51934FFC58391
:1023B300C0E0E518C3958224F810AF08858319851A
:1023C30082188008858319858218D2AFCEF0A3E5E1
:1023D30020F0A37808E608F0A3DEFAEFF0A3E58186
:1023E30024FAF8E608F0A3E608F0A3E608F0A30849
:1023F30008E608F0A3E608F0A315811581D0E0FEF6
:10240300D0E0F8158115811581E8C0E0EEC0E02227
:102413002518C582C0E0E51934FFC583C0E0E5187F
:10242300C3958224F910AF08858319858218800823
:10243300858319858218D2AFCEF0A3E520F0A37867
:1024430008E608F0A3DEFAEFF0A3E58124FBF8E643
:1024530008F0A3E608F0A30808E608F0A3E608F0EE
:10246300A315811581D0E0FED0E0F815811581E830
:10247300C0E0EEC0E022851983851882E0A3FEE068
:10248300A3F5207808E0A3F608DFFAE0A3FFE0A3B2
:10249300C0E0E0A3C0E0E0A3C0E0E0A3C0E0E0A3AD
:1024A300C0E010AF088582188583198008858218DB
:1024B300858319D2AFD083D0820201228519838507
:1024C3001882E0A3FEE0A3F5207808E0A3F608DF76
:1024D300FAE0A3FFE0A3C0E0E0A3C0E0E0A3C0E014
:1024E300E0A3C0E010AF08858218858319800885B2
:1024F3008218858319D2AFD083D08222C0D0251809
:10250300C582C0E0E51934FFC583C0E0E518C39573
:102513008224F310AF088583198582188008858388
:1025230019858218D2AFC8F0A3E9F0A3EAF0A3EBB0
:10253300F0A37908E709F0A3D8FAECF0A3EDF0A330
:10254300EEF0A3EFF0A3D0E0F0A3D0E0F0A3D0E04F
:10255300F0A3E520F0A3E5F0F0A322851983851805
:1025630082E0C0E0A3E0F9A3E0FAA3E0FBA37808CC
:10257300E0F608A3DFFAE0FCA3E0FDA3E0FEA3E09E
:10258300FFA3E0C0E0A3E0C0E0A3E0F5D0A3E0F543
:1025930020A3E0A3F5F010AF088583198582188086
:1025A30008858319858218D2AFD082D083D0E0F812
:1025B300D0E03274048006740280027401C0E0F437
:1025C30004122380D0E01222562274048004740281
:1025D3008000CCC0E0EDC0E0E518C39CCCAD195041
:1025E300011D10AF068C188D1980068C188D19D219
:1025F300AF122263D0E0FDD0E0FC22D083D082E989
:10260300C0E0E493A3C386F0C5F095F0F908E49322
:10261300A386F0C5F095F0700BE493A3C39940052E
:10262300E9048002A3E475F002A42582F582E5F0B3
:102633003583F583D0E0F9E493A3C0E0E493C0E0ED
:1026430022D083D082CCC0E0E493A3600612266E2E
:102653001470FAE493A3600612268D1470FAD0E086
:10266300FCE493A3C0E0E493C0E022C0E0E493A3BE
:10267300D39C5010E493A3C39C400AD0E0D0E0D095
:10268300E0022661A3A3A3D0E022C0E0E493A36CFD
:102693007009D0E0D0E0D0E0022661A3A3D0E0220D
:1026A300D083D082ECC0E0EDC0E0E493A3FCE493DC
:1026B300A3FDED4C600D1226EFEC24FFFCED34FF7F
:1026C300FD80EFE493A3FCE493A3FDED4C600D12B6
:1026D300272EEC24FFFCED34FFFD80EFD0E0FDD08E
:1026E300E0FCE493A3C0E0E493C0E022C0E0C3E4D1
:1026F3009396087401939618400FE4936670080844
:10270300740193661870007019A3A3C3E493960829
:102713007401939618A3A3400DD0E0D0E0D0E0025B
:1027230026DFA3A3A3A3A3A3D0E022C0E0C0F08825
:10273300F0E4936670080874019366187000A8F0BB
:10274300A3A3700BD0F0D0E0D0E0D0E00226DFA34B
:06275300A3D0F0D0E0224B
:10275C00C2AF02000022C0E074F21224FFA2AFE468
:10276C0033FED2AFE589A2E04006E589A2E1500331
:10277C001207CD758900758900C2C5EEA2E092AF33
:10278C007F0102255EC0E0C0D0E8C0E0E9C0E0E512
:10279C00A8D2AFC2C7A2E7A2E792AFD0E0F9D0E0CF
:1027AC00F8D0D0D0E03274F5122413EAFEEBFFEE31
:1027BC002434F8EF3400F988088909EE24351228FE
:1027CC00DEF8EE24371228DEF50AEC850AF0A4FCBC
:1027DC00AAF0850AF0EDA42AFDE82CF8E43DF97A7C
:1027EC00257B001222C5EA850882850983F07407CF
:1027FC005AF87401B800028004C333D8FCFBEA1306
:10280C001313541FF8EE28F8EF3400F9E8245DF5A3
:10281C0082E91228E15B6003EA801CEE2436122860
:10282C00DEF5F0EA84A8F0EE28F8EF3400F9E8249D
:10283C0038F582E91228E1F97F040224BF74F512FD
:10284C002413EAFEEBFFEE24341228DEC0E0EE2463
:10285C0035F582EF3400F583D0E0F08E828F83A3C0
:10286C00A3A3A3A3E0FAA3E0FB8E828F83A3A3A36D
:10287C00A3A3A3A3E0FCA3E0FDECC39AF50AED9B94
:10288C00F50BEE247FF508EF3400F509850882F589
:10289C0083E06401702BEE2480F582EF3400F58325
:1028AC001225D11228E77402122366E960137C37D3
:1028BC007D09EEFAEFFB1212CB850882850983E4C1
:1028CC00F0AC0AAD0BEEFAEFFB1227B212310B0291
:1028DC002844F582EF3400F583E022C082C0838562
:1028EC001882851983E0F8A3E0F9C3EA9CEB9D50AC
:1028FC0010C3EC98ED99401BC3EA98EB99501480E7
:10290C000EC3EA98EB994007C3EC98ED9940047913
:10291C000180027900D083D08222EAC39CFAEB9D1D
:10292C00FB2274ED1224139007FDE064086005E0AF
:10293C006407702C9061C8E0602690082BE0F87456
:10294C00FF68601CE875F003A4C8AAF02AF9742D7E
:10295C0028FE740839FF8E828F83A3A3A3E0700531
:10296C007900022ACEEE2468F510EF3400F51190B0
:10297C006060E0851082851183F0750AA0750B09E3
:10298C00750800750900E5D914F50EE5D95403F561
:10299C000F601CEE2482F50CEF3400F50D7403650A
:1029AC000F6058E50E6013EE24671228DE700B7969
:1029BC003DEEFAEFFB1212EF80A690099BE064014A
:1029CC006026850C82850D83E06004780480027893
:1029DC0000850E08E508C398FA95E0FB12116F8A82
:1029EC00088B09EA4509700612154702296C850CFB
:1029FC0082850D83E070048A0A8B0B78008016E5C3
:102A0C00D9C0E08812E50A2512F582E50B3400F5F1
:102A1C0083D0E0F008E8C3950E40E4850C82850D68
:102A2C0083E0602874FC250EF50E780A1225BAACEA
:102A3C000EA90FEEFAEFFB12139D7402122366E936
:102A4C00700AAA08AB091209F50229BB7403650FB9
:102A5C006058850E0C750D00780C1225BAAC0AADB9
:102A6C000BAA08AB0912136174021223668510823B
:102A7C00851183E0F87480687005750C7F8002887E
:102A8C000CE50CF50A780A1225BEE50FF50A780A52
:102A9C001225BEA90EAC08AD0990082BE0FA7B00FC
:102AAC00121007740212236680139007FDE064086D
:102ABC00600BAC0AAD0BEEFAEFFB1214331215538C
:102ACC0079017F0C0224BF74F312241374FC1223BB
:102ADC0050EAFEEBFF8908A2AFE433F509C2AFEE72
:102AEC002463F50AEF3400F50B8010AA0AAB0B1225
:102AFC0013191209F590093EE004F0850A82850B42
:102B0C0083E0F8A3E0F9E849602FE82402FAE934FD
:102B1C0000FBEA2402F50CEB3400F50D780C1225C1
:102B2C00BA8A828B83E0FCA3E0F9EEFAEFFB121376
:102B3C000D7402122366E960B290093EE060579072
:102B4C00093FE0F890093EE0C398500C7402650808
:102B5C007044900940E0603E8E828F83A3A3A3A3B0
:102B6C00E0851882851983122BB2740212239BE81C
:102B7C00122BB290093DE028F0740212239BAC8218
:102B8C00AD83851882851983AA82AB8379011210D3
:102B9C001390093EE4F0E509A2E092AF740412230D
:102BAC00667F060224BFF0A3E4F090093EE0F82211
:102BBC008521878522C622C0E074EF1224FFA2AFC4
:102BCC00E433FEC2AF759B00906182E0A2E050122C
:102BDC00E591A2E0500C7591FE7401652170031211
:102BEC00292EE0A2E55051E591A2E5504B7591DFFD
:102BFC009007FDE064076005E064087023740165CC
:102C0C00217035790190082BE0FA75F003A4CAA85D
:102C1C00F028FB742D2AFA74083BFB122AD3801877
:102C2C00E0640D701390081FE004F064287002E457
:102C3C00F07A00E0F9121559906182E0A2E64003A7
:102C4C00022CEAE591A2E64003022CEA7591BF90B2
:102C5C0007FDE064057008121475121481800312CC
:102C6C00147B7521001214E7E99007FEF07900122D
:102C7C0014DB1212357A017B009007FCE0F9120587
:102C8C001B907803E06442705590099FE014F0703B
:102C9C004DC2AF122CA200782AD0E0F618D0E0F684
:102CAC00E59F540770057509FF800375097FC4C043
:102CBC00E07829E6F50808E65509F509740B78085B
:102CCC0012232ED0E02508F8906270E0A2E740F8BD
:102CDC00E8C333906272F0906270E0D2E0F09061E1
:102CEC0081E0A2E35009E5E9A2E3500375E9F7A3FB
:102CFC00E0A2E75009E591A2E7500375917FEEA29F
:102D0C00E092AF7F0402255EC0E0C0D0C082C083D9
:102D1C00906183E0A2E05009E5BFA2E0500375BFCB
:102D2C00FEE0A2E15009E5BFA2E1500375BFFDE052
:102D3C00A2E25009E5BFA2E2500375BFFBE0A2E39B
:102D4C005009E5BFA2E3500375BFF7E0A2E45009B8
:102D5C00E5BFA2E4500375BFEFE0A2E55009E5BF63
:102D6C00A2E5500375BFDFE0A2E65009E5BFA2E67D
:102D7C00500375BFBFD083D082D0D0D0E032C0E03A
:102D8C0074F21224FFE5A7A2E4500FE5A1A2E450CF
:102D9C000953A7EF75A1EF122DDEE5A7A2E5500CA4
:102DAC00E5A1A2E5500653A7DF75A1DFE5A7A2E1D7
:102DBC005009E5A1A2E1500375A1FDE5A7A2E250DF
:102DCC000CE5A1A2E2500653A7FB75A1FB7F010203
:102DDC00255E74F81224137521019007FDE064063A
:102DEC0070077A007B0012145DA2AFE433FED2AF01
:102DFC00900803E0640170187A207B009007FCE0D7
:102E0C00F91205B17A207B009007FCE0F91205213C
:102E1C00906182E0D2E6F090099CE0602185C622A8
:102E2C008016900802E064017008E5C654F8440569
:102E3C00F5C653BEFC122BBC7401652160E4EEA2F6
:102E4C00E092AF7F010224BF8E238F2485822885D8
:102E5C008327851882851983E0CEA3E0CF8528824D
:102E6C00852783EBC9EAC8EDCBECCA75F010C3E833
:102E7C0033C8E933C9EA33CAEB33CBC3EA9EF52630
:102E8C00EB9FF525B35004AB25AA26EC33CCED33E0
:102E9C00CDD5F0DAAE23AF242274F11224138A08B4
:102EAC008B098C0A8D0B90911A78081221D4740F0F
:102EBC0012239B780C12222090911A780C1221D498
:102ECC007808790C1218079090D250107808790C69
:102EDC0012219478081218274014800E780C790867
:102EEC00122194780C121827500479018002790071
:102EFC007F080224BF74ED1224138A088B098C0AF4
:102F0C008D0B90911A78081221D4741312239B788C
:102F1C000C12222090911A780C1221D4780C79087A
:102F2C0012180740117808790C122194AA08AB09E1
:102F3C00AC0AAD0B8022751000751100751200756E
:102F4C0013017810790C1221947810790812215BF6
:102F5C00AA10AB11AC12AD137F0C0224BF90911AC6
:102F6C0078081222208A828B8378081221E77F044A
:102F7C000224BF74F51224138C828D8378081222DC
:102F8C00208A828B8378081221C0122FD3C3E09839
:102F9C00F0A3E099122FC5401E90911E78081222C2
:102FAC00208A828B8378081221818E828F83E02481
:102FBC0020F0A3E0344EF080A4F08E828F83C3E027
:102FCC009420A3E0944E22EA2404F8EB3400F9E8B0
:102FDC00FEE9FF8C828D83A3A3A3A3E0F8A3E0F901
:102FEC008E828F832274F5122413E9FE900952E02D
:102FFC00FAA3E0FBEEC333F8E433F9747B28F582D3
:10300C00748F39F583E02AF508A3E03BF5097808BD
:10301C001225BA9090F612223E122E5474021223EC
:10302C00668A088B098C0A8D0B7410780812212380
:10303C00AA08AB097F040224BF74F11224138A0C72
:10304C008B0D8C0E8D0F740F12239BE0FAA3E0FBFB
:10305C00741112239BE0F508A3E0F50978081225FA
:10306C00BAEA2401F508EB3400F509E4F50AF50B8E
:10307C00780C790812201F9090DE780812222078A4
:10308C000C790812201FAA0CAB0DAC0EAD0F122E32
:10309C005474021223668B09EA450960047A018094
:1030AC00027A00EC2AFCED3400FD741312239BE031
:1030BC00F8A3E0F9E8FEE9FFECF8EDF97A717B0290
:1030CC001222C588088909E4F50AF50B8E828F83D4
:1030DC00780812222FECF8EDF97A717B021222C5D6
:1030EC008A088B097405780812233D8E828F83A37E
:1030FC00A3A3A3E508F0A3E509F07F080224BFC051
:10310C0082C083E9906000F0D083D082220020201E
:10311C00202020202020202828282828202020207B
:10312C00202020202020202020202020202088103B
:10313C00101010101010101010101010101004049B
:10314C0004040404040404041010101010101041A2
:10315C004141414141010101010101010101010113
:10316C0001010101010101010110101010101042A8
:10317C0042424242420202020202020202020202E3
:0E318C000202020202020202021010101020C3
:10319C00FFFFFFFFFFFFFFFFC082C083E9900D9987
:1031AC00F00233CE74F71223A7E990073CF07C743D
:1031BC007D077AFF7BFF120F5F90073D74FFF0A332
:1031CC00F0A3E4F0A3F07905120EED90073CE0F9C2
:1031DC00120E0F7A777B0F1211217F010224797462
:1031EC00F41223A78A088B09EB5480603090073CBB
:1031FC00E0F91205038A0A8B0BAE0AAF0BEE4F6097
:10320C00138E828F83E064B07003120EFFEEFAEF20
:10321C00FB1204F1AA08E5096480FB80047A007BA8
:10322C000002339D74F21223A774FC122350EAFEA1
:10323C00EBFFEE4F6038740212239BEEF0A3EF12FB
:10324C003602ECF0A3ED123602AA82AB83120E0901
:10325C00E9F5087073741212239B1241B6E50A4506
:10326C000B60658E828F831232DEEE4F700575080F
:10327C000280557A067B001205638A0C8B0DA80C14
:10328C00A90DE8497005750813803D88828983E48F
:10329C001232E8A3A3EEF0A3EF12464FE50AF0A317
:1032AC00E50BF09007421233709007426017E0FC78
:1032BC00A3E08003EAFCEBFD8C828D8312337070EB
:1032CC00F38C828D831240DBA908740412236602EE
:1032DC004851A3A3A3A3E0FEA3E0FF22F0A3F08830
:1032EC008289832274F21223A7890AE975F017A444
:1032FC00FEAFF0900741E4F090073F123370600A84
:10330C0012056990073FE4F0A3F0EEFAEFFB12050B
:10331C00638A088B09EA4509602FEEFCEFFD790002
:10332C001204DF90073FE508F0A3E509F07B00806D
:10333C000812335AE4F0A3F00BEBC3950A40F2E504
:10334C000A900741F0790080027913024851EB751D
:10335C00F017A4F8A9F090073FE028FAA3E0398A07
:10336C0082F58322123E71EA4B2274F41223A77960
:10337C0000EAA2E0501B75087A75099078081225AE
:10338C00BA7C047D007A9B7B0D120EE7740212232B
:10339C00667F04022479C082C0839007421233D521
:1033AC00601C88828983A3A3E06A7003A3E06B8806
:1033BC0082898370E8A3A3A3A3123E6D80047A00D4
:1033CC007B00D083D082020122124924E849227466
:1033DC00EE1223A774FC122350EAFEEBFF85188231
:1033EC00851983E4F0A3F0EE24021240BFEE24050D
:1033FC001235F0EE2404F50EEF1239D5E024FE6000
:10340C003924FC604624FE605224FE605E24FE706B
:10341C00030234F524FE700302356D24FE700302A2
:10342C00357C24FE700302358B24FC700302359A24
:10343C0024FE70030235A90235E690075B7417F081
:10344C00A3E412360A120B870235E6851882851919
:10345C0083AC82AD83120F050235B68518828519AF
:10346C0083AC82AD83120F0B0235B6850C08850D2B
:10347C0009740212239BAC82AD8385088285098373
:10348C00123E6D120E2D8A0C8B0DAC0CAD0DEC4D4D
:10349C006042E4F50CF50D780C1225BA750C5B75D1
:1034AC000D07780C1225BA750C5C750D07780C128B
:1034BC0025BA740812239B1225D17916123E671275
:1034CC000F477408122366E9F50C700B123E631259
:1034DC000B9F800F750C018508828509831235F8C6
:1034EC001240DB850C080235B9740212239BAC82A6
:1034FC00AD83850C82850D83123E6D120E2D8A10C4
:10350C008B11AC10AD11EC4D6043850C82850D8395
:10351C00A3A31225D175105B75110778101225BA6B
:10352C0075105C75110778101225BA740812239B5C
:10353C001225D17916123E67120F477408122366B2
:10354C00E9F509700B123E63120BA5800F7509018A
:10355C00850C82850D831235F81240DB85090880B5
:10356C004C851882851983AC82AD83120F11803A79
:10357C00851882851983AC82AD83120F17802B8539
:10358C001882851983AC82AD83120F1D801C85189F
:10359C0082851983AC82AD83120F23800D8518822E
:1035AC00851983AC82AD83120F29E9F508E5086013
:1035BC00298E828F83A3E06414601F850E82850F91
:1035CC0083E090075B12360212492090075C124090
:1035DC00DBE508A312360A120B81EEFAEFFB120E92
:1035EC00AB023FC7F50CEF3400F50D2212492485D0
:1035FC00188285198322F085188285198322F07C24
:10360C005B7D07850A82850B83123E712274EE1254
:10361C0023A774FC1223508A0A8B0B8C0E8D0FEA95
:10362C002405F508EB3400F5097C157D0079007A4A
:10363C005B7B071204DFE5082402F50CE509123563
:10364C00F385188285198385821085831178101271
:10365C0025BA850882850983A3A3A3A3123B1D1257
:10366C0025BAE5082405F510E5093400F5117810A4
:10367C001225BA850C82850D83123E77120E2774A3
:10368C00061223668A108B11AE10AF11E50A2402C4
:10369C00F50AE50B1240C2EE4F70030237DF8017BC
:1036AC00740212239B123E6D88828983EAF0A3EB8D
:1036BC00F090075BE004F090075BE0C394054003D7
:1036CC000237DFE4F510F51178101225BA751044A5
:1036DC0075110778101225BA7510457511077810F9
:1036EC001225BA740612239B1225D17910EEFCEF29
:1036FC00FD123E67120F477408122366E9705E854F
:10370C000882850983A3A3A3A3A3A3A3E0F890072E
:10371C0044E0687048123B1D1225BA7C457D07E5D4
:10372C00082408FAE5093400FB1204D974021223A8
:10373C0066E960298E828F83A3A3A3A3123E6D90AA
:10374C00075BE0F5107402781012233D745C2510B1
:10375C00F58274073511F583EAF0A3EBF0740212CD
:10376C00239B85821085831178101225BA7402125E
:10377C00239B1225D1850C82850D83124935120E9F
:10378C003374041223668A108B11AE10AF1190079C
:10379C005BE0F5107511007402781012233D745B18
:1037AC002510F874073511F988828983A3123370B8
:1037BC0070030236A3E82403F8E93400F9EE4F60F5
:1037CC00030236AC8882898374FFF0A3F090075B08
:1037DC00E004F090075BE0600A123E63120B9379F1
:1037EC0000800B8508828509831240D2790A023F3A
:1037FC00C774EA1223A774FE1223508C128D13EA9D
:10380C002405F50CEB12493F1232E27508007509DC
:10381C0000EA2402F510EB3400F5118518828519A5
:10382C008385820A85830B780A1225BA850C8285DA
:10383C000D83A3A3A3A31239DF1225BAE50C24052B
:10384C00F50AE50D1240C2780A1225BA850C82855C
:10385C000D83124933120E2774061223668A0A8BC3
:10386C000BEA450B7003023990EA2404F50EEB12B7
:10387C0039D51232E28A828B83A3A3A3E0F9851097
:10388C0082851183123E6D120E15E9F50960030253
:10389C003990E4F514F51578141225BA751444759D
:1038AC00150778141225BA75144575150778141276
:1038BC0025BA740612239B1225D17913AC0AAD0BD1
:1038CC00851082851183123E6D120F4774081223E6
:1038DC0066E9F5096003023990900744E0F8E508C1
:1038EC007009E0240290075CF0801790075CE0FC04
:1038FC00E82402FAE43400FBEA6C7001EB6003028A
:10390C003994850882AA82123B149414123B0C50F1
:10391C0073850E82850F83E0C0E0745D2A1239CC6A
:10392C00D0E0F00508850E82850F83A3E0C0E0850A
:10393C00080A745D250A1239CCD0E0F0050890070E
:10394C00441239DF1225BA7C457D0785080A745D5F
:10395C00250AFA74073400FB1204C774021223669A
:10396C00900744E02508F50874FF6E700374FF6F30
:10397C006012EE24010EEF3400FFE508C3941450DE
:10398C0003023827E5086013123D58851082851113
:10399C0083123E6D120B9979008014E50970037542
:1039AC00090A851282851383EEF0A3EFF0A909743E
:1039BC00021223667F0E02247985080C745D250C97
:1039CC00F58274073400F583223400F50F850E82DE
:1039DC00F583221246622274EE1223A774FE122380
:1039EC00508C0E8D0FEA2405F50CEB1235F3750B8C
:1039FC000090075BE4F0F50AEA2402F508EB3400CA
:103A0C00F509804990075BE0FA900744E0F8123B17
:103A1C00149417123B0C400D90075BE0F87416C31E
:103A2C0098900744F0123B1D1225BA7C457D077413
:103A3C005C2AFA74073400FB1204C7740212236662
:103A4C00900744E0F890075BE028F0050AE50C24A9
:103A5C0016F582E50D1239D0E0F8E50AC39840035B
:103A6C00023AF590075BE0C39416507DE50AC33328
:103A7C00F8E433F9E50C28FEE50D39FF851882854D
:103A8C001983AC82AD838E828F83123E6D120E2D04
:103A9C008A108B11AC10AD11EC4D7005750B0180BB
:103AAC0043E4F510F51178101225BA751044751110
:103ABC000778101225BA7510457511077810122564
:103ACC00BA740612239B1225D179168508828509B2
:103ADC0083123E6D120F477408122366E9F50B70C2
:103AEC0003023A101240CE80107C5B7D0785088261
:103AFC00850983123E6D120BABA90B7402023FC9F0
:103B0C00E99400C365D03322EA28F8E43400F9E8DC
:103B1C0022E0F51075110078102274EA1223A774B4
:103B2C00FC1223508A0C8B0D8C128D13EA2405F594
:103B3C000AEB1240C2750800750900E50A2402F56B
:103B4C0010E50B3400F511740212239B85820E854F
:103B5C00830F780E1225BA850A82850B83A3A3A343
:103B6C00A312460E1225BAE50A2405F50EE50B3410
:103B7C0000F50F780E1225BA85108285118312403C
:103B8C00C8123E67120E2774061223668A0E8B0F1C
:103B9C00AE0EAF0FE50C2402F50EE50D3400F50F5B
:103BAC0080408882898374FFF005081239C574FF40
:103BBC00F00508900744E0F50C750D00780C122503
:103BCC00BA7C457D0785080C745D250CFA740734A6
:103BDC0000FB1204C77402122366900744E0250808
:103BEC00F508EE4F60718E828F83A3A3A3E0F98555
:103BFC000E82850F83123E6D120E15E9F509EE2427
:103C0C00041235F0E97044E4F514F5157814122516
:103C1C00BA75144475150778141225BA75144575C0
:103C2C00150778141225BA740812239B1225D17922
:103C3C0011EEFCEFFD850E82850F83123E6D120F87
:103C4C00477408122366E9F5096027850C82850DF7
:103C5C0083123D4E1240DBE5087003023D34123DE9
:103C6C0058850E82850F83123E6D120BB1790002BE
:103C7C003D49850882AA82EA9007447009E0240431
:103C8C0090075CF08022E0F890075CE0F514E824E3
:103C9C0004FCE43400FDEC65147001ED70C0123BC3
:103CAC00149412123B0C50B6850C82850D83E0C027
:103CBC00E0745D2A1239CCD0E0F00508850C8285C1
:103CCC000D83A3E0C0E01239C5D0E0123D6A8582B5
:103CDC000C85830D780C1225BA740412239B1225C3
:103CEC00D1851082851183124935120E337404125A
:103CFC0023668A0C8B0DAE0CAF0D85080C745D25FC
:103D0C000CF874073400F9EE4F7003023BAE8518C3
:103D1C0082851983E088828983123D6AA3E0C0E022
:103D2C001239C5D0E0023BBCE509700375090A8560
:103D3C000A82850B83123D4E1240DBA909740402E2
:103D4C0039BD1249248512828513832290075CE0C9
:103D5C00F5F0E5088490075BF07C5B7D0722F005AD
:103D6C00088518828519832274EC1223A774FE121D
:103D7C0023508A088B098C0E8D0FEA2405FEEB3438
:103D8C0000FF851882851983AC82AD838E828F8368
:103D9C00123E6D120E2D8A0A8B0BEE24181235F082
:103DAC00EA450B7003023E3E123FB050328518823A
:103DBC00851983123E6D120F3B8A108B11EA451147
:103DCC00606B7912AC0AAD0B850882850983123EB3
:103DDC006D8510828511831223A5E9F50A7058E4CC
:103DEC00F50AF50B780A1225BA8E828F83A3A3E00D
:103DFC00F50A780A1225BAEE24031240BF780A128B
:103E0C0025BA8E828F83123E77120F4D74061223C1
:103E1C0066E9F50A7021850C82850D83E0701F859B
:103E2C000882850983123E6D120BB78011750A0E3C
:103E3C008009750A018004E50A60031240CE850CE6
:103E4C0082850D83E0600479008002A90A74021255
:103E5C0023667F0C0224797C5B7D07850A82850BA7
:103E6C0083123E7122E0FAA3E0FB22E0FCA3E0FD0A
:103E7C00850882850983123E712274EE1223A77481
:103E8C00FE1223508A088B098C0C8D0DEA2405FE3A
:103E9C00EB3400FF750E00851882851983AC82AD5A
:103EAC00838E828F83123E6D120E2D8A0A8B0BEA43
:103EBC00450B7003023F9C123FB05035851882852C
:103ECC001983123E6D120F3B8A0E8B0FEA450F6061
:103EDC005E7912AC0AAD0B850882850983123E6DA2
:103EEC00850E82850F831223A5E9F50E6003023F30
:103EFC009F8508828509831241B6AA0AFB120F2FEF
:103F0C008A108B11A810A911E849701E7AFF7BFF4B
:103F1C00120F2F8A108B11A810A911E849606C8818
:103F2C00828983E50AF0A3E50BF0750A008007751A
:103F3C000E0E805F050A900741E0FAE50AC39A501D
:103F4C004AE50A75F017A4FAABF088828983A3A31B
:103F5C00E02AFAA3E03BFB8A828B831240C8EC4D2B
:103F6C0070D2750A17750B00780A1225BAEEFCEFA1
:103F7C00FD1204C77402122366EEFCEFFD85088265
:103F8C00850983123E6D120BBD8014750E098003DA
:103F9C00750E0112491C850C82850D831240DBA91C
:103FAC000E023B07E5082402F508E5093400F50983
:103FBC008A828B83A3A3A3E0A2E522740412236656
:103FCC007F0A02247974EC1223A78C108D11EA2439
:103FDC0005F50CEB1235F3750F00EA2402F50AEB2C
:103FEC001240C2850A82F583123E6D120F2F8A0889
:103FFC008B09EA450970030240B4750E0080718587
:10400C000C82850D83E06401704F8E828F83A3A395
:10401C001225D18E828F83A3A3A3A3E0F51275136F
:10402C000078121225BAEE2405F512EF3400F513C0
:10403C0078121225BA123E67120F4D7406122366BF
:10404C00E9F50F6014850C82850D83E4F012491C90
:10405C008510828511831240DB7C177D007900EE80
:10406C00FAEFFB1204DF8E828F83E4F0A3F0050ECF
:10407C00900741E0F8E50EC398501EE50E75F01759
:10408C00A4F8A9F0850882850983A3A312494912D3
:10409C0040C8EC4D600302400B850882850983748F
:1040AC00FFF0A3F0E50F7006123E67120BC3A90FC9
:1040BC00023E5EF50AEF3400F50B22A3E0FCA3E010
:1040CC00FD228E828F83124924850E82850F83E810
:1040DC00F0A3E9F022C082C08390073DE06A700330
:1040EC00A3E06B70067A3D7B0780047A007B0002AC
:1040FC0033CEC082C08378008C828D83E06A7003DB
:10410C00A3E06B7010E875F003A4F8A9F0EC28FAA2
:10411C00ED39FB8015088C828D83A3A3A3E06A7014
:10412C0003A3E06B60DF7A007B000233CE74F612DF
:10413C0023A7120EF98A828B83E582458370067A57
:10414C00007B008007A3A3A3A3123E6D0247CD748E
:10415C00F21223A7E9FE740E12239B1241B67410BF
:10416C0012239B12462E8C828D83E064027036A340
:10417C0012492AF50CA3E0F9A80C740268700374B8
:10418C0029697021750C02750D00780C1225BA780E
:10419C00081225BA780A1225BAEEF9120F717406B4
:1041AC0012236680027901024851E0F50AA3E0F57A
:1041BC000B2274E81223A774FB122350E985188292
:1041CC00851983F08A168B17ECFEEDFF75100074C1
:1041DC001D12239B124920741D12239B1240DB8E4F
:1041EC00828F83A3A3A3E0A2E4502D741D12239B02
:1041FC00123E6D120F3B8A828B83E58245837003DE
:10420C000245FF790AEEFCEFFDAA16AB171223A5A7
:10421C00E9F5106003024602741F12239B12462E0E
:10422C00742112239B1241B6742312239BE0F50ECA
:10423C00A3E0F50F8E828F83E0640260030245AD2C
:10424C00A3124920850882850983A3858212858360
:10425C0013EE24061235F088828983E0FAA3E0F984
:10426C00EA2400F514E439F51578141226A301009C
:10427C0000280128A2420700022867430328D442E1
:10428C0000299E440129C94402296A4403299E44F9
:10429C0004294845AD45E50E450F60030245A88548
:1042AC000C82850D83124623FAE9FB8A828B83E00C
:1042BC00850A82850B831246591225BA8A828B8312
:1042CC00A3E0FCA3E0024532E50E450F6003024576
:1042DC00A8850A82850B837401F012463685088204
:1042EC00850983F07C007D008E828F83A3A3A3A31A
:1042FC00E02401FAA3E03400FB120E2DEA4B6041DE
:10430C008A828B83E02402F8850A82850B83E0285D
:10431C00F0EA2404F8EB3400F988828983E08512F2
:10432C008285138312466B1246591225BA8A828BE8
:10433C00831240C7E5082403FAE5093400FB024563
:10434C0037850A82850B83E02404F07C047D007998
:10435C0000AA12AB131204DF024602E50E450F60F1
:10436C00030245A8124636FEA3E0FF850A82850BA0
:10437C00837404F0EE850882850983F0EF85128240
:10438C00851383F0740312239BAC82AD83EEFAEF9A
:10439C00FB120E2D8A0C8B0DEA450D700302444B5B
:1043AC008A828B83A3A31232DE740112239B858233
:1043BC000E85830F780E1225BA740512239B1225D5
:1043CC00D17CFF7DFF120E3374041223668B0FEA2F
:1043DC00450F7033850C82850D8312460E1225BA5B
:1043EC00850C82850D83A31225D17C027D007ABBBE
:1043FC007B91120C5F7404122366E9700A7401122B
:10440C00239B74FFF0A3F08E828F83E064027039DB
:10441C00750C02750D00780C1225BA8E828F8312E2
:10442C0040C7E5082404FAE5093400FB1204C774FC
:10443C0002122366850A82850B83E02402800974AC
:10444C000112239BEEF0A3EFF0740112239B124692
:10445C001FF0740112239BA31246170245A2E50E0E
:10446C00450F60030245A8850C82850D831240C858
:10447C00AA16AB17120F65850A82850B837402F09E
:10448C00EA850882850983F0851282851383EB0205
:10449C0045A5E50E450F60030245A8124636F8A364
:1044AC00E0F9850A82850B837402F0E88508828521
:1044BC000983F0E98512828513830245A5850C8258
:1044CC00850D83123E6D1204C1EAFC8C82A882C356
:1044DC00950EE4950F405FE8650E7002E50F7004D1
:1044EC007C008022851882851983E0FAE50E2AFA71
:1044FC00E50F3400FBC3EA98EB94005003E0800511
:10450C00E50ECCC39CFCEC850A82850B83F08C0AEF
:10451C00750B00780A1225BA850C82850D83E0256F
:10452C000EFCA3E0350FFDAA08AB091204C77402F8
:10453C00122366024602751007024602E50E450F6D
:10454C00705A850C82850D83124920850A82850B51
:10455C008374071232EA1246171232EAA3E085126C
:10456C0082851383F0E82402FAE93400FB8A828BFB
:10457C008312461712464612461FA312464F124686
:10458C0028F0E82405F8E93400F98882898312467A
:10459C0028A312466BA3A3A3A3F0805A75100B801B
:1045AC0055741D12239B123E6D120EF98A828B8359
:1045BC00E5824583603D124920880C890DE8450D44
:1045CC006031780E1225BA780A1225BA78081225AD
:1045DC00BA740612239BE0F9EEFCEFFDAA16AB179A
:1045EC00850C82850D831223A57406122366E9F5CA
:1045FC0010800375100EA91074051223667F10022B
:10460C002479E0F50E750F00780E22E0850882857E
:10461C0009832212467522124924E822124675A3F8
:10462C00A322E0F508A3E0F50922850C82850D8311
:10463C00E0F8A3E0F5838882E022A3A3F08A828BC2
:10464C0083A322F088828983A3A3A3A322F08A8266
:10465C008B8312466222E0F50A750B00780A22F071
:10466C0088828983A312467522E085088285098396
:10467C00A3A32274EE1223A774FE1223508A0A8B72
:10468C000BECFAEDFB741412239BE0F510A3E0F590
:10469C0011741612239BE0FE741812239BE0F50E86
:1046AC00A3E0F50F851882851983AC82AD83120EB9
:1046BC002D8A0C8B0DEA450D60498518828519836E
:1046CC00123E6D120EF98A828B83E5824583602F30
:1046DC00A3A312462EE50845096024780E1225BACC
:1046EC0078101225BAEEF9AC0CAD0DAA0AAB0B85FD
:1046FC0008828509831223A5740412236680067927
:10470C000E80027901023B0774F61223A774FE1285
:10471C002350740C12239B1246238518828519830F
:10472C00F0740112239BE9F0E4F508F509780812FE
:10473C0025BA75080278081225BA740412239B85D1
:10474C00820885830978081225BA120F4D74061257
:10475C0023667402122366806874F71223A7EAFE9C
:10476C00EBFF89087C747D07120F65EA5402600B1D
:10477C00A908EEFAEFFB120E21800279010231E654
:10478C0074F61223A774FF6A700374FF6B70168C97
:10479C00828D831247D2E4F08C828D83A3A3A31263
:1047AC0047D2A38018120F358A088B09A808A909CB
:1047BC00E849600D8882898374FF1232E8A3A3E470
:1047CC00F07F0202247974FFF0A3F08C828D83A316
:1047DC00A32274F61223A7120F358A828B83E582EB
:1047EC0045836006A3A3E0FA80027A007B0080D1A7
:1047FC0074F21223A78A088B09ECFEEDFF740E12DB
:10480C00239BE0F50A120F358A0C8B0DA80CA90D11
:10481C00E8497026EEFCEFFD7AFF7BFF120F358A1C
:10482C000C8B0DA80CA90DE8497004791180168821
:10483C00828983E508F0A3E509F088828983A3A324
:10484C00E50AF079007F0602247974EE1223A7EAB8
:10485C00FEEBFF8C088D09890C741412239B1249F2
:10486C0020741612239B123E6D750D00E8496003EF
:10487C000249147402650C600302490F741212236E
:10488C009B12492AFCA3E0F9EC2400F50EE439F55F
:10489C000FEAF4F8EBF4F9EC58F8E50F59F9E8499C
:1048AC00705CE5082406F8ED3400F9880A890B8859
:1048BC0082F583124935120F658A108B11E50E654E
:1048CC00107004E50F65116042780E1225BA850A46
:1048DC0082850B83124935120F6B7402122366E921
:1048EC00F50D7027780E1225BA850882850983A3E9
:1048FC00A3124933120F7D7402122366800D750DBD
:10490C00808008750D0D8003750D0BA90D023FCC31
:10491C008E828F8312492422E0F8A3E0F9221249F7
:10492C002488828983E022A3A3E0FCA3E0FDEEFAB5
:10493C00EFFB223400F50D850C82F58322E028FE76
:10494C00A3E039FF8E828F832274F21223A7EAFE32
:10495C00EBFF890B7401650B600E7402650B706ABA
:10496C00790112113FE97062EEFAEFFB120F2F8AF8
:10497C00088B09EA45096047750A00800B7C177D96
:10498C000079001204DF050A900741E0F8E50AC33C
:10499C00985021E50A75F017A4F8A9F085088285CE
:1049AC000983A3A3E028FAA3E039FB8A828B831244
:1049BC0033D570C985088285098374FFF0A3F07C18
:1049CC00747D07EEFAEFFB120F5F02485174F2127E
:1049DC0023A78A088B09ECFEEDFF740E12239B12A1
:1049EC0041B6900D99E0F4603D7A097B001204EB1E
:1049FC00EA4B60328A828B8374B1F0A3E41246488E
:104A0C00A3124646A3E508F0A3E509124A35EEF0D9
:104A1C00A3EF124A35A3A3E50AF0A3E50BF0900D22
:104A2C0099E0F91204F7024851F08A828B83A3A310
:104A3C00A3A3A32278007900EBC313FBEA13FAE8D3
:104A4C00240108E93400F9EA4B70EDE849600AE802
:104A5C0024FFFAE934FFFB80047A007B0002012278
:104A6C0074F01223A7750C00750D00750E00750FF0
:104A7C00007E007F0080287408780C12213CEA2EFE
:104A8C00F582EB3FF583E0F508E4F509F50AF50B43
:104A9C00780C79081221FAEE24010EEF3400FFC3D2
:104AAC00EE9CEF9D40D1AA0CAB0DAC0EAD0F7F0868
:104ABC0002247974F71223A774FC12235074021287
:104ACC00239BEAF0A3EBF01260727A007B00740275
:104ADC0012239B124B9C94007402500712239BE0F0
:104AEC00FC801012239B124B9C940150047C0D8073
:104AFC00027C0E851882851983124B9C94008518B4
:104B0C00828519835004E0F8800D124B9C9401505F
:104B1C0004780D8002780E740D12239BE0FEA3E046
:104B2C00FFECC454F0488E828F83F0740212239BE6
:104B3C00A882A98388828983125C74C3EC940DEDDE
:104B4C0094014019124BA324F3ED34FEC0E0124C37
:104B5C00FFD0E0124D1288828983E0800CC3EC9464
:104B6C000DED9400400D124BA324F3C0E0124CFF4A
:104B7C00D0E0F0851882851983E582687003E5839F
:104B8C006970AD124D1374041223667F01022479EF
:104B9C00C3E0940DA3E022EA24010AEB3400FBEC01
:104BAC002274E81223A774FA1223508518828519EF
:104BBC0083EAF0A3EBF08C168D177A007B0074203F
:104BCC0012239B780812222085080C85090D850A72
:104BDC000E850B0F909156780C1221D4124CF66066
:104BEC00010A850810850911850A12850B1390910D
:104BFC004278101221D4740212239BE510F0A3E525
:104C0C0011F0A3E512F0A3E513F0740212239B78C4
:104C1C0010122220124CED6008EA24010AE4340040
:104C2C00FB850810850911850A12850B1390913AA2
:104C3C0078101221D4124CED6003124D13E5084587
:104C4C0009450A450B6003124D13741E12239BE099
:104C5C00FEA3E0FF8E148F1578141225BAEAFCEB34
:104C6C00FD740212239BE0C39516FAA3E09517FB83
:104C7C001206417402122366124CF6601685080C5B
:104C8C0085090D850A0E850B0F7418780C122123DB
:104C9C00124D08740212239B780C122220124CF62F
:104CAC00601685080C85090D850A0E850B0F74108E
:104CBC00780C122123124D08124CED6008124CFF97
:104CCC00E509124D12E5084509450A450B60081225
:104CDC004CFFE508124D1274061223667F10022455
:104CEC0079E51045114512451322E50C450D450E8D
:104CFC00450F22EE2AF582EF3BF58322EE2AF58250
:104D0C00EF3BF583E50CF0EA24010AEB3400FB22BF
:104D1C0074E81223A774FF122350E98518828519B1
:104D2C0083F08A168B17ECFAEDFB7E007F0074196A
:104D3C0012239BE0F512A3E0F513741B12239BE0E6
:104D4C00F510A3E0F511741D12239BE0F50AA3E006
:104D5C00F50B851882851983E07003024E258510AA
:104D6C000E85110F8E0C8E0DE50A2401F8E50B341F
:104D7C0000F9C3E8950CE9950D5003024E68E51057
:104D8C00250CF8E511350DF988828983E0FC85182E
:104D9C0082851983E06C600CE50A650C7004E50BE8
:104DAC00650D706FE8C3950EF508E9950FF509E5EB
:104DBC00122EF514E5133FF51578141225BAAC082C
:104DCC00AD09E516C39AFAE5179BFB12064174026E
:104DDC001223668A148B15EE2514FEEF3515FF7819
:104DEC00081225BAAC0EAD0FE5122EFAE5133FFBF7
:104DFC0012175D7402122366EE2508FEEF3509FFCB
:104E0C00124E71AA16AB17E510250CF50EE51135EF
:104E1C000DF50F124E71024D7478121225BAAC0AB0
:104E2C00AD0BE516C39AFAE5179BFB12064174020B
:104E3C001223668A088B09AE08AF09780A1225BAC4
:104E4C00AC10AD11E5122EFAE5133FFB12175D7491
:104E5C0002122366EE250AFEEF350BFFEEFAEFFB8E
:104E6C007401024CE5E50C2401F50CE50D3400F55C
:104E7C000D2274F41223A7ECFEEDFF890B8E828FAA
:104E8C0083125D5E740C12239B125C74740E1223DD
:104E9C009BE0F508A3E0F509E8498A828B83603F23
:104EAC00E028F50AA3E039850A82F583E50BF08E3C
:104EBC00828F83124F0678081225BA8E828F831246
:104ECC005D5E8A828B831255B212176374021223B1
:104EDC00668E828F83E02508F0A3E03509800D12E1
:104EEC0060788E828F83E508F0A3E509F0025F24D9
:104EFC00125EA2D083D082020122E02401F0A3E052
:104F0C003400F02274F21223A7EAFEEBFF890A8C1C
:104F1C000B740E12239BE0F508A3E0F509750C75D4
:104F2C00750D00780C1225BA7C007D00121769747F
:104F3C0002122366EE2472F582EF125F2DE50AF061
:104F4C00EE246FF582EF125F2DE50BF0EE242012AC
:104F5C005CDE7F0602247974E81223A774FE122308
:104F6C00501260728A0A8B0B7E007F00EA2426F5B1
:104F7C0014EB3400F515125D58851482851583E801
:104F8C00F0A3E9F0EA246EF8EB1255FC7401F01270
:104F9C005599E4F08A828B83E0C4333354C01255A4
:104FAC00BA2472125EEFC454F054301255BA246A0B
:104FBC00F8E50B1255FCE0540FF9125599E049F045
:104FCC00E50A246FF8E50B3400F9E8FCE9FD8C8266
:104FDC008D83E0C0E0125599A3D0E0F0E50A2420BF
:104FEC00F8E50B3400F988088882F583A3E0C0E06B
:104FFC001255ACD0E0F08508828983E0C0E01255F0
:10500C00ACA3D0E0F08C828D83E070057A0402555D
:10501C0056851482851583125CA4801CE50A2EF536
:10502C0082E50B3FF583E085088285098312559054
:10503C00EE24010EEF3400FF8A828B83E0F8C3EE7E
:10504C0098EF940040D67E00E50A24181255EDA284
:10505C00E1503CE50A2471125EEFF50E8E0F780ECE
:10506C001225BAE50A2410F50EE50B3400F50F787D
:10507C000E1225BA78081225BA79007C007D007AC8
:10508C00017B0012064D740612236612556E0E85B6
:10509C000C82850D83E0A2E35030E50A243A125FBE
:1050AC00291225D1E50A242C125F291225D1780862
:1050BC001225BA7900EEFC7D007A037B0012064DB6
:1050CC00740612236612556E7E03850C82850D8341
:1050DC00E0A2E4503EE50A2470125EEFF50E750F67
:1050EC0000780E1225BAE50A2408F50EE50B3400FB
:1050FC00F50F780E1225BA78081225BA7900EEFC55
:10510C007D007A047B0012064D740612236612553C
:10511C006E7E04850C82850D83E0A2E55020909173
:10512C00361225CD78081225BAEEFC7D007A057B67
:10513C0000120647740612236612556E7E05850C06
:10514C0082850D83E0A2E65024E50A2442125F29F1
:10515C001225CD78081225BAEEFC7D007A067B006C
:10516C00120647740612236612556E7E06850C8253
:10517C00850D83E0A2E75031E50A2462125EEFF55B
:10518C000CA3E0F50DE4F50EF50F780C1225B678AE
:10519C00081225BAEEFC7D007A077B0012064774D4
:1051AC000612236612557F7E07E50A24191255DE76
:1051BC00A2E05030E50A243C125F291225D1E50A01
:1051CC00242E125F291225D178081225BA792FEED8
:1051DC00FC7D007A087B0012064D740612236612C1
:1051EC00557F7E08851082851183E0A2E35030E55F
:1051FC000A2440125F291225D1E50A2432125F29B4
:10520C001225D178081225BA792FEEFC7D007A0B85
:10521C007B0012064D740612236612557F7E0B8599
:10522C001082851183E0A2E45024E50A24731256FF
:10523C001F1225B678081225BAEEFC7D007A0C7B7D
:10524C0000120647740612236612557F7E0C8510D9
:10525C0082851183E0A2E65024E50A2422125F29FC
:10526C001225CD78081225BAEEFC7D007A0E7B0053
:10527C00120647740612236612557F7E0E85108225
:10528C00851183E0A2E75030E50A2460125F2912F1
:10529C0025D1E50A2434125F291225D1780812256C
:1052AC00BA7926EEFC7D007A0F7B0012064D74064F
:1052BC0012236612557F7E0FE50A241A1255DEA2C0
:1052CC00E15024E50A247412561F1225B6780812F0
:1052DC0025BAEEFC7D007A117B001206477406128B
:1052EC00236612557F7E11851082851183E0A2E41E
:1052FC005030E50A243E125F291225D1E50A2430EC
:10530C00125F291225D178081225BA7926EEFC7D78
:10531C00007A147B0012064D740612236612557F18
:10532C007E14851082851183E0A2E7505AE50A2489
:10533C004E125F29780C1222207404780C12213C36
:10534C00E50A246B125EEF6008909132780C122201
:10535C000DE50A246412560812232EAA10AB111262
:10536C00063512555D1221FA780C1225B678081202
:10537C0025BAEEFC7D007A177B00120647740612E4
:10538C00236612557F7E17E50A241BF516E50B34B0
:10539C0000F517851682F583E0A2E3505AE50A243E
:1053AC004A125F29780C1222207404780C12213CCA
:1053BC00E50A246C125EEF6008909132780C122290
:1053CC000DE50A245E12560812232EAA10AB1112F8
:1053DC00063512555D1221FA780C1225B678081292
:1053EC0025BAEEFC7D007A1B7B0012064774061270
:1053FC00236612557F7E1B851682851783E0A2E4F7
:10540C005024E50A2456125F291225CD780812255E
:10541C00BAEEFC7D007A1C7B001206477406122340
:10542C006612557F7E1CE50A241C1255EDA2E35032
:10543C0030E50A2436125F291225D1E50A242812F8
:10544C005F291225D178081225BA7900EEFC7D006F
:10545C007A237B0012064D740612236612556E7E5B
:10546C0023850C82850D83E0A2E75030E50A2438B1
:10547C00125F291225D1E50A242A125F291225D19F
:10548C0078081225BA7900EEFC7D007A277B001291
:10549C00064D740612236612557F7E27E50A241FDB
:1054AC00125EEFA2E45022E50A245A125F2912255B
:1054BC00CD78081225BAEEFC7D007A3C7B001206F2
:1054CC0047740612236612557F8514828515831244
:1054DC0055CFC3E8943FE99400A2D265D033505421
:1054EC00E50A2466F8E50B3400F9E8FEE9FF8E8244
:1054FC008F83125D5EE849600B8508828509837491
:10550C00FF1255908E828F831225D1E50A2468F5FF
:10551C0082E50B125FCAAA08AB0912176374021258
:10552C0023668518828519831255CF8E828F83123C
:10553C0055B28018851482851583E4F0A3F0900C85
:10554C00677465F0A3748EF07A007B007402024CD1
:10555C00E5EA540FF510E4F511F512F513780C7912
:10556C0010228A0E8B0FE508250EF508E509350F7C
:10557C00F509228A0C8B0DE508250CF508E5093593
:10558C000DF50922F0A38582088583092212559D09
:10559C0022851482851583E0F8A3E0F583888222A6
:1055AC0012559DA3A322E028FAA3E039FB22F8852B
:1055BC001482851583E0F9A3E0F5838982E048F035
:1055CC00E50A22E0F8A3E0F9E508C398F8E50999A3
:1055DC00F922F510E50B3400F511851082F583E006
:1055EC0022F50CE50B3400F50D850C82F583E022D9
:1055FC003400F9E8FAE9FB8A828B8322125616F5FD
:10560C0010A3E0F5117404781022F582E50B125CFE
:10561C00CAE022125616F50CE4F50DF50EF50F78CE
:10562C000C2274E81223A774F9122350740312236A
:10563C009B126078EAFEEBFF750875750900780817
:10564C001225BA7C007D001217697402122366EED3
:10565C002426F8EF3400F9740312239B125EA288FF
:10566C00828983125DDF246EFAEF3400FBEAFCEBD7
:10567C00FD125C9E131354038C828D83F0125C9E7E
:10568C00540F5403C0E0EE2472F582EF125F2DD05C
:10569C00E0125C8CE0540FFAC394097402400712B8
:1056AC00239B7408800412239BEAF0EE246AF50A0B
:1056BC00EF3400F50BE0850A82850B83125C8CA31A
:1056CC00E0C0E0EE246FF582EF125F2DD0E0F088A1
:1056DC00828983125D5E88828983A3A3E0FAE4CA7F
:1056EC00FB88828983A3A3A3E0F8EBF9EE242012B4
:1056FC005CBE8C828D83E06401600F900C677464D7
:10570C00F0A3748FF0798002598A740312239B12D0
:10571C005CA4850A82850B83E0F50C8A0D780C124B
:10572C0025BAAC08AD09EEFAEFFB12175D74021244
:10573C002366750C08780C1225BA7C007D00EE24CB
:10574C0018FAEF3400FB1217697402122366850AEB
:10575C0082850B83E0F8E50828F508E5093400F5A7
:10576C0009750A00750B00740512239BE4F0A3F075
:10577C00851882851983F0A3F0EE244EF516EF34CC
:10578C0000F517EE244AF514EF3400F515741F12CA
:10579C00239B125D5E741F12239BE8F0A3E9F002B9
:1057AC00590EEAC4540FFA740512239BEAF0A3E4D1
:1057BC00125C83540F851882851983F0A3E4F0885A
:1057CC00088909740512239BAA82AB8385088285FC
:1057DC000983A3A882A9838A828B83125C74740DBB
:1057EC006C7001ED701B850882850983E0240DFC2B
:1057FC00E43400FD8A828B831260788808890980E2
:10580C0040740E6C7001ED70388A828B83740DF0CD
:10581C00A37401125C83FD0D8A828B83740D12605C
:10582C0079880888828983E0F88A828B83E028F063
:10583C00A3E03400F08508828983A38582088583E0
:10584C0009851882851983E5826A7003E5836B608C
:10585C00030257D4740512239BE0250AF50AA3E032
:10586C00350BF50BE50A5407F87401B800028004F7
:10587C00C333D8FCFA850A0C850B0D7403780C1213
:10588C00232EEE250CF8EF350DF9E82418F582E9F6
:10589C00125EF34AF0850A0C850B0DE50D600302D0
:1058AC005C5CE50C122644001301F55903495A04BB
:1058BC00A459052C5A06FA5A07625A08C05A0B7892
:1058CC005A0CF0580E8F590FA35A11E95914DD5A7E
:1058DC0017065B1BAC5B1C445C233A5A273A5A3CB8
:1058EC00505C5C5C125CB012063BEE2473F582EFEC
:1058FC00125F2DEAF0125D58E50828F508E5093924
:10590C00F509741F12239B125D5E740312239BE036
:10591C0028F8A3E039F9C3E50898E50999505D85A5
:10592C000882850983A3A882A983850882850983B7
:10593C00E0FA74F05A64F060030257AEEE24681279
:10594C005CBE741F12239B125FC3C398F8EB99F9CA
:10595C00740312239B1255B2EE2466F8EF3400F94F
:10596C0088828983EAF0A3EBF0C3EA9481EB94007C
:10597C00400A888289837480F0A3E4F0790074076C
:10598C00024CE5125CB012063BEE2422F582EF12BB
:10599C005F2D12224A025901851882851983C3E0B2
:1059AC009409A3E09400400474088007851882854C
:1059BC001983E0C0E0EE2470F582EF125F2DD0E089
:1059CC00125C7A1225BAAC08AD09EE2408FAEF3451
:1059DC0000FB12175D7402122366025901125CB0AF
:1059EC0012063BEE24740258F9851882851983C37C
:1059FC00E09409A3E09400400474088007851882A1
:105A0C00851983E0C0E0EE2471F582EF125F2DD092
:105A1C00E0125C7A1225BAAC08AD09EE241080AD08
:105A2C00EE246DF582EF125F2D7401025900900C7B
:105A3C00677494F0A3748EF079A502598AEE242C25
:105A4C00125CDE125D58EE243AF582EF125F2DE8FF
:105A5C00F0A3E9025900125CB012063BEE2462F589
:105A6C0082EF125F2DEAF0A3EB02590085188285B4
:105A7C0019831225D178081225BA792FEE2440FC0F
:105A8C00EF3400FDEE2432FAEF3400FB12065374AF
:105A9C00041223660259018518828519831225D1B7
:105AAC0078081225BA7926EE2460FCEF3400FDEE5E
:105ABC00243480D38518828519831225D178081255
:105ACC0025BA792FEE243CFCEF3400FDEE242E8019
:105ADC00B68518828519831225D178081225BA79D2
:105AEC0026EE243EFCEF3400FDEE24308099125C4F
:105AFC00B012063BEE2442025998125CB012063BDF
:105B0C008A0C8B0D8C0E8D0F851682851783780C65
:105B1C0012222FEA131313541F5401C0E0EE246B0E
:105B2C00F582EF125F2DD0E0F07510107511008525
