:020000040000FA
:0600000002010A022F7B41
:03002B0002284167
:03005300022FEE8B
:03006B0002281256
:10008300022DE7E5C754F84401F5C77901220000C2
:100093000080FB120086B900030200F4E4792178A2
:1000A30008B800028004F709D8FCE479297802B87B
:1000B30000028004F709D8FCE4900281786D790A84
:1000C3008002F0A3D8FCD9FA900BEDAA82AB8390FF
:1000D300013A78A879038015E493A3AC82AD838AAF
:1000E300828B83F0A3AA82AB838C828D83D8E9D9D8
:1000F300E77582C7758382740512011C7582917539
:100103008300740012011C75D00075813F7518813E
:10011300751902759F00020096C09FF59FE473D086
:100123009F22D083D082C09FE493C0E0740193C028
:10013300E0740293F59F22FFFF0A486F7020495035
:100143007636000843726561746520636F6E6E6571
:100153006374696F6E001857726974652F52656313
:10016300656976652049507636205061636B657406
:100173007300000A4F4D4120426F6F7473747261B4
:1001830070205365727665720002C9830100009D79
:100193008302C583010000EF0B02D5830300008CAB
:1001A3000202D183010000F00B02C583010000F9B4
:1001B3000B02D7830200009C0202D183010000FAE4
:1001C3000B02C5830100000C0C02D983020000005E
:1001D3000002B383030000BC0202D1830100000DBF
:1001E3000C02C583010000290C02C183030000C86F
:1001F3000202D1830100002A0C0200BF040000FFA9
:10020300FFDF8301E803053F100A0A000A006400C8
:10021300FFFF484F5020556269717569746F75739C
:1002230020532E4C2E00484F5020436F72650033ED
:10023300320039370001000500740E8813FA00F408
:1002430001550008070000FF000130750302010695
:10025300000000000000000000000000000000009B
:10026300000000000000000000000000FFFF060087
:10027300800CE803FF0000B40000280028002830A9
:1002830075A000A000A000A00000080008E001F095
:10029300001000100010001000100010005000505B
:1002A30000500010001000D0070000000000000FF5
:1002B3000001000500307507001000010081FF00F8
:1002C300000000FFCD0EEB0ED30EFF020202080268
:1002D3005000A0000000E80302C9830100009783D7
:1002E30002C583010000810D02B1830100005E0796
:1002F30002C583010000820D02AF83010000740771
:1003030002C583010000830D02B583010000760757
:1003130002C583010000840D02B78308000077073C
:1003230002C583010000850D02B983010000860D1B
:10033300FF0100FF2002C983010000AC8302C583D3
:10034300010000EA0D02BF83000000000002B38336
:10035300030000C4079714971497149714971497DE
:1003630014971497149714971497149714971419B0
:100373001731171317000020418096184B00008097
:100383003F010000006D4EC64139300000FFFFFF02
:10039300000000008030313233343536373839418C
:1003A300424344454600286E756C6C20706F696E3D
:1003B3007465722900303132333435363738396158
:1003C3006263646566003F3F3F000000807FF9027F
:1003D3001550B743BA5100E7DB2E0000A0401201CD
:1003E30025E5CA0312012500CB0312012522CB0305
:1003F30012012541CB031201255DCB0312012574A4
:10040300CF03120125F7CF0312012527E0031201C1
:100413002532E00312012539E00312012542E003EE
:100423001201258AE00312012597E003120125A09A
:10043300E003120125E5E003120125FEE0031201AA
:10044300253EE1031201257AE1031201254AE60361
:1004530012012593E6031201256882051201259FE7
:10046300C604120125DEC90412012580C30312014B
:1004730025A1C303120125FAC3031201258DC40369
:100483001201252EC70312012594CA031201259DCB
:10049300CA03120125A6CA03120125B4CA03120115
:1004A30025D1CA03120125DCCA03120125F8FD0276
:1004B30012012508FE021201255DFE0212012586A6
:1004C300FF021201250080041201250A8004120193
:1004D30025488004120125918004120125CB800454
:1004E3001201252581041201254681041201254F9D
:1004F30081041201259C8104120125C58104120186
:1005030025CF81041201253B8204120125CD8204EB
:100513001201251783041201254D8304120125D9E5
:1005230083041201251A8404120125518404120143
:10053300256384041201258284041201258B84041B
:1005430012012553850412012572F704120125694E
:10055300F80412012583F80412012578E704120137
:1005630025BCE704120125F2E704120125C0E904C2
:100573001201251AEA0412012523EA04120125A611
:100583008705120125BC8705120125C687051201BF
:10059300253BBE0412012550BE0412012503BF04EE
:1005A30012012543BF041201255CBF0412012597E4
:1005B300BF04120125E4BF0412012516C004120171
:1005C3002558C00412012563C204120125FBFD0452
:1005D30012012523FE0412012552FE041201256A8D
:1005E300FE04120125ACFE041201258EDE04120165
:1005F30025A1DE041201251DDF041201253CDF04C1
:10060300120125B5DF0412012554E004120125BAB5
:10061300E00412012555E10412012589E1041201C8
:1006230025A3E1041201251995041201257F9504E0
:10063300120125EE9804120125A76400120125D3A7
:1006430064001201252665001201251466001201BB
:1006530025836700120125E56800120125776900EB
:10066300120125CA69001201259570001201255C4B
:1006730077001201257C7700120125CB7700120148
:10068300250178001201255E78001201250F7900FB
:100693001201255E7900120125987900120125398E
:1006A3007A00120125A37A00120125CD88051201D3
:1006B30025E08301120125458601120125E6870104
:1006C3001201259A88011201252D8901120125B2F3
:1006D3008901120125D789011201252D8D011201EE
:1006E30025B38D01120125E68E01120125208F010C
:1006F300120125558F011201251591011201257251
:100703009101120125BB91011201252692011201CB
:1007130025979201120125C99201120125E1920147
:100723001201252A94011201253A9401120125553B
:100733009501120125779501120125AD950112014D
:1007430025619701120125EE97011201252D9801CC
:10075300120125519901120125F283051201250386
:100763008405120125A88405120125A08105120123
:10077300250482051201254F82051201255F82059A
:10078300120125F989051201256BFF011201257B51
:10079300FF0112012590FF01120125F8FF0112014B
:1007A30025F7FC041201257CFD04120125E2FD045A
:1007B3001201252FF60412012563F6041201258C7C
:1007C300F60412012503F704120125ECFB041201C0
:1007D3002513FC0412012569FC04120125B9FC044C
:1007E3001201256BD10412012579D104120125F3DD
:1007F300D104120125CBD20412012586D40412019F
:100803002594F804120125A9F80412012527F904F7
:1008130012012531F90412012540F9041201254979
:10082300F9041201256AF9041201252E8305120128
:1008330025798305120125D48305120125B8B50452
:10084300120125C2B504120125D5B50412012504F0
:10085300B604120125B3B604120125E7B60412014A
:100863002534B7041201256AB70412012573B704AE
:1008730012012588B70412012591B7041201259AA4
:10088300B704120125A6B704120125AFB70412015C
:1008930025B8B704120125D6B704120125F1B70410
:1008A30012012589B904120125F6CD041201256C24
:1008B300CE0412012515D00412012592D004120191
:1008C30025F7FE0412012575FF04120125ADFF046F
:1008D300120125EDE6031201250CE703120125B3EE
:1008E300E703120125EEE703120125D6E8031201FF
:1008F3002599EA03120125B1EA03120125BBEB0393
:1009030012012594EC03120125ECEC031201253DA1
:10091300EA04120125CBEC04120125A7EE0412010F
:1009230025B4EE04120125DBEE04120125CA8A0464
:10093300120125F28A04120125368B041201256661
:100943008B04120125E18B04120125EB8C041201A7
:10095300253E8E04120125438E04120125798E044F
:10096300120125B38E0412012567A2031201250A81
:10097300A7031201252CA80312012578AA0312014B
:1009830025D2AA0312012551DB0412012504DD043B
:10099300120125D8DD0412012516DE04120125DD1E
:1009A300F203120125EFF40312012599F603120154
:1009B300259EF603120125A0F603120125A2F603D4
:1009C300120125DEF60312012570C2041201258BE4
:1009D300C304120125DFC404120125E4C404120177
:1009E3002520C50412012522C50412012524C504AE
:1009F30012012560C5041201250AAD041201255216
:100A0300AE04120125A6AF04120125ABAF041201F7
:100A130025E7AF04120125E9AF04120125EBAF046A
:100A230012012527B00412012503BA04120125225D
:100A3300BB0412012576BC041201257BBC04120100
:100A430025B7BC04120125B9BC04120125BBBC04A3
:100A5300120125F7BC041201250C9F04120125AFD6
:100A63009F04120125D3A004120125A5A20412019B
:100A730025AAA204120125F5EC0312012529EF038F
:100A8300120125CDF003120125D2F003120125D462
:100A9300F0031201252EF1031201259CF20312012A
:100AA300257299031201257D99031201258E99035D
:100AB300120125F29A03120125899C03120125F6DE
:100AC3009E03120125649F03120125699F031201EE
:100AD300256B9F03120125B49F03120125F59F0384
:100AE300120125D38C031201251D8D0312012582CA
:100AF3009003120125E991031201256C920312015F
:100B030025F29303120125679403120125B494037C
:100B13001201258C9503120125B296031201254C6F
:100B2300D903120125A0D90312012598DC03120170
:100B330025B5DD0312012532F30412012584F304E4
:100B43001201250EF40412012575F404120125483F
:100B5300EF0412012572EF0412012540F004120183
:100B6300251BF104120125C4B3031201258BB40321
:100B7300120125C2B403120125ECB4031201254C62
:100B8300B503120125A2B50312012507B60312010D
:100B9300259FB603120125AEB70312012545B903FC
:100BA300120125D2B90312012539BA0312012550C6
:100BB300BA031201256ABB03120125A8BB03120164
:100BC30025818504120125078A04120125D6CA024C
:100BD30012012557CE02120125DFCF02120125365D
:100BE300D00212012555D002120125D3D0021201E1
:100BF3002569D2021201254ED3021201255CD702C8
:100C030012012532D802120125EF8F021201255B52
:100C130091021201259B9402120125FB94021201F9
:100C230025119902120125DD9902120125809B02EB
:100C3300120125159C02120125769C02120125BB87
:100C43009D021201252C9E021201250A9F02120108
:100C53002598C201120125CEC201120125F5C30157
:100C630012012521C6011201256FC6011201256457
:100C7300C90112012578CA01120125C7CC0112014D
:100C830025A2CD011201254CCF011201255DD10111
:100C930012012596D20112012515D3011201258EC9
:100CA300F803120125C1FA0312012501FB03120106
:100CB3002570FB0312012550FC03120125F17A0074
:100CC300120125BF7B00120125D7800512012526BD
:100CD300FE031201253DFE031201256EFE031201E0
:100CE30025A9FE03120125D3FE03120125FDFE03F0
:100CF30012012514FF031201252BFF0312012542C4
:100D0300FF031201256BFF031201257EFF0312016E
:100D13002594FF03120125A7FF03120125CEFF032C
:100D2300120125BEF302120125C2F402120125FAB3
:100D3300F4021201251DF50212012528F502120104
:100D4300254BF5021201255AF6021201252FF7024F
:100D5300120125AAF70212012532F8021201256DAC
:100D6300F802120125A4F80212012532F902120138
:100D7300250BFA021201256BFA0212012576FA02FB
:100D8300120125F5FA02120125F8FA02120125FBD8
:100D9300FA021201258AFB021201258DFB021201C0
:100DA30025BDFB02120125E7FB02120125D5FC023A
:100DB30012012587FD02120125E0A3041201250873
:100DC300A40412012536A4041201256DA404120102
:100DD30025CBA40412012516A50412012561A5043F
:100DE300120125A1A504120125E7A5041201251569
:100DF300A604120125D2A604120125DCA6041201C1
:100E030025E9A6041201251CA704120125E8A7045D
:100E1300120125F4A7041201250CA80412012516BA
:100E2300A8041201250080051201250E8005120178
:100E3300252680051201253E80051201254A9F02C1
:100E4300120125F69F0212012571A00212012592BB
:100E5300A102120125CEA10212012577A2021201DD
:100E6300255EA302120125C2A40212012519A502BF
:100E73001201259AA5021201258AA602120125D77D
:100E8300A6021201255DA7021201258FA7021201F6
:100E930025A3A902120125E5A90212012503AA022D
:100EA30012012586AA021201255AAB02120125223C
:100EB300AC0212012529D203120125FCD20312012F
:100EC30025A5D303120125F8D303120125A8D403C2
:100ED30012012534D50312012520D6031201254F13
:100EE300D60312012562D703120125AAD7031201E3
:100EF300257FD803120125BBD803120125D7D803B8
:100F03001201252287051201255DCA0412012573EA
:100F1300CA0412012599CA04120125B5CB04120192
:100F230025BFCB04120125F4CC04120125ECCD041A
:100F3300120125F28F041201252291041201255575
:100F430091041201259F9104120125669304120155
:100F5300250080021201256A8002120125C981023F
:100F6300120125D981021201250682021201255D93
:100F730082021201250683021201250D8402120149
:100F830025D784021201253786021201257A8602AB
:100F93001201251F87021201256C87021201259277
:100FA3008702120125A08902120125A589021201D7
:100FB30025AA8B02120125F78B021201256A8C02E6
:100FC3001201259D8C021201253F8D02120125E895
:100FD3008D02120125208E02120125238E02120199
:100FE300256B8E02120125AB8E02120125028F02A0
:100FF300120125A5E404120125BDE404120125050F
:10100300E5041201251BE50412012562E504120122
:101013002576E60412012503E7041201254EE704B1
:101023001201250C34001201251834001201255336
:10103300340012012598340012012558350012019D
:1010430025DE35001201250A36001201254336003C
:10105300120125813800120125653A001201254B42
:101063003C001201258E3D00120125DC3F001201D8
:1010730025EE4000120125394200120125494300A3
:10108300120125664300120125A14300120125C365
:101093004300120125264400120125E748001201EE
:1010A300257C4900120125CD4900120125F4490090
:1010B300120125464A00120125644A00120125BE89
:1010C3004A00120125BD4B00120125414C001201BB
:1010D30025389A04120125429A04120125859A049F
:1010E300120125A09A04120125309B0412012558F0
:1010F3009B04120125959B04120125CC9B0412012C
:1011030025F59B041201256A9C041201257F9C048A
:10111300120125949C04120125C59C04120125D9B2
:101123009C04120125FE9C04120125389D04120122
:1011330025649D041201259C9D04120125469E04ED
:101143001201258F9E04120125B99E04120125E484
:101153009E04120125D3FA04120125008003120113
:10116300252E80031201257C81031201255C820355
:101173001201257B8203120125F882031201253B0C
:101183008303120125918403120125528503120161
:1011930025D987031201257A880312012570890353
:1011A3001201256D8A03120125C78B0312012552F3
:1011B3008C03120125D4F4041201253DF504120118
:1011C3002591F504120125B8F504120125E9F5046A
:1011D3001201259DA8041201250AA9041201255113
:1011E300A90412012569AA0412012565AB041201A1
:1011F3002548AC041201255BAB031201259DAB030B
:101203001201256FAC0312012548AD0312012542DB
:10121300AE0312012524AF031201258DAF03120182
:101223002543B003120125B7B00312012523B103EF
:101233001201254CB103120125C6B1031201255F2A
:10124300B203120125C4B203120125D9B20312015C
:10125300251FB30312012538B3031201259DB303E0
:10126300120125A0B303120125ACE104120125D418
:10127300E10412012512E204120125D0E204120155
:101283002537E30412012553E3041201257BE3040C
:10129300120125ABE304120125BAE3041201253739
:1012A300E4041201255DE4041201252FE401120177
:1012B300250DE6011201253FE8011201257BE80116
:1012C300120125A8E80112012592E901120125DD89
:1012D300E90112012528EA011201253AEA01120166
:1012E300257AEA01120125AFEA01120125FDEA017F
:1012F3001201252CEB011201254FEB011201259C54
:10130300EB0112012521EC011201253BEE01120133
:10131300257AF001120125BBF0011201255DF201CE
:101323001201259EF20112012511F301120125621A
:10133300F301120125A9E602120125A7E702120112
:101343002540EE0212012561F0021201252CF20262
:1013530012012594F302120125A84C00120125570E
:101363004D001201259D4D00120125D34E0012019F
:1013730025014F001201259750001201251151003C
:101383001201252C5100120125A75100120125013C
:101393005300120125615400120125675500120103
:1013A30025C85600120125E156001201253F5700BA
:1013B3001201252D5800120125605800120125D075
:1013C30058001201254A59001201259459001201AF
:1013D300255E5A00120125335B00120125125C00C1
:1013E3001201259D5C001201250B5D001201257F72
:1013F3005D00120125AA5D00120125695E0012013C
:1014030025CE5F00120125EB5F001201250A600063
:10141300120125FB60001201252061001201254AFB
:101423006100120125C561001201251F620012012E
:1014330025886300120125366400120125776400B4
:10144300120125D5D80212012523D9021201252F15
:10145300D9021201250DDA021201253EDA02120128
:10146300256FDA02120125EFDA0212012527DB02CA
:1014730012012579DB02120125B6DB02120125D305
:10148300DD02120125F9DF02120125E4E102120156
:1014930025CEE302120125F97F0012012585AE0155
:1014A300120125B5AE011201258EB50112012513D6
:1014B300B70112012510BD01120125F8BD0112016A
:1014C3002535BE0112012558BE0112012589BE0131
:1014D30012012592BE011201259CBE011201258A2B
:1014E300BF0112012580C001120125769901120165
:1014F30025759D011201257B9D01120125B6A401CD
:10150300120125CFA901120125CBD404120125C54F
:10151300D50412012539D60412012577D604120108
:1015230025EBD60412012564D7041201256DD704D7
:1015330012012579D7041201258ED704120125CC77
:10154300D704120125E2D7041201256BB10412015D
:101553002578B10412012592B104120125D1B104F9
:101563001201250FB20412012574B2041201258958
:10157300B20412012594B204120125A1B20412018E
:1015830025B8B204120125C6B204120125D1B20452
:10159300120125DDB204120125ECB204120125F774
:1015A300B2041201251AB304120125C1B3041201B6
:1015B30025D1B304120125EBB30412012508B404A9
:1015C30012012524B40412012549B404120125543F
:1015D300B40412012569B4041201257DB404120177
:1015E30025DEB404120125E4B404120125EAB4048F
:1015F300120125F0B40412012508B5041201253B9C
:10160300B504120125ACBC0212012530BD02120142
:1016130025DFBD021201253EBF021201255FC10273
:101623001201254BC20212012580C202120125A21A
:10163300C20212012551C30212012549C50212013A
:101643002572C50212012504C60212012536C602FF
:1016530012012543C6021201259AC602120125C0B2
:10166300C6021201252DC90212012530CA02120138
:101673002588CA021201253BAE0212012545AF029D
:101683001201252CB00212012536B0021201255891
:10169300B00212012564B002120125FDB10212014C
:1016A300252CB20212012548B302120125A1B3026F
:1016B30012012507B502120125E6B50212012542E2
:1016C300B602120125AFB602120125EAB6021201D3
:1016D3002529B702120125E2B902120125FCB9023C
:1016E30012012588BA0212012596BA02120125EFCA
:1016F300BA02120125FDBA0212012570BB021201C2
:1017030025D4BB021201251EBC021201253DF401A2
:101713001201255FF40112012585F6011201259AB4
:10172300F901120125B2FA0112012565FB0112012B
:101733002547FC011201258DF104120125B2F104A4
:1017430012012524F20412012506BC031201250F00
:10175300BC0312012518BC03120125EFBC031201BF
:1017630025A0BE03120125D6BE0312012510BF0317
:1017730012012546BF0312012580BF03120125B4C0
:10178300BF03120125E0BF0312012529C003120183
:101793002563C003120125ACC00312012504C10354
:1017A30012012539C10312012594C103120125CE6B
:1017B300C1031201251FC20312012555C2031201E1
:1017C300258FC203120125BDC203120125E0C20306
:1017D300120125B38405120125DF84051201253A80
:1017E300850512012544850512012554850512013D
:1017F30025978605120125B5F9041201256A890585
:10180300120125FE8505120125CD7F001201252336
:1018130089051201255E85051201258885051201BA
:1018230025E6FF04120125D88905120125B0890593
:10183300120125E0FF031201251088051201257509
:10184300880512012512D80412012573D301120150
:101853002596D801E066701008A3E066700A08A315
:10186300E066700408A3E06622C3E09608A3E0964E
:1018730008A3E09608A3E096A2D265D03322C0085D
:10188300C3E096F50808A3E096420808A3E0964251
:101893000808A3E0964208A2D265D033E508700198
:1018A300D3D00822C3E7960809E7960809E7960804
:1018B30009E79622C3E09608A3E09608A3E09608FA
:1018C300A3E09622C008C3E096F50808A3E0964279
:1018D3000808A3E096420808A3E09645087001D3E0
:1018E300D00822080808E630E7111221AF1218FECB
:1018F300080808C64480C618181822181818E97969
:101903009EC608CAC608CBC608CCC6C37020799643
:10191300CACBCC7019798ECBCC70137986CC700E70
:10192300F9802ACA33CACB33CBCC33CC331930E753
:10193300F2CCCBCA3350147004EA30E00DE4CA3A57
:10194300CACB3BCBCC3CCC500209C3E913C6CC1861
:101953002313C6CB18C6CA18C6F9228A088B098C6A
:101963000A8D0B78081219A820F01430E72B74FFA6
:10197300FCFBFA747F8022E4FCFBFA7480801AB4C7
:101983008008BC00F2BB00EF800F50EBF9E4C39A70
:10199300FAE49BFBE49CFCE499C6CC18C6CB18C6BE
:1019A300CA18C6F922E4C9C608CAC608CBC6D333C7
:1019B3000308CCC63392F0C3947F402E9418401989
:1019C300C9B90704CACBCC225025C309CA33CACB31
:1019D30033CBCC33CC33D9F422F4600DC9CCC3134D
:1019E300CB13CBCA13CAD9F6CC22E4FCFBFA2214DC
:1019F300FCFBFA22E6C33318461846184622E7C30F
:101A03003319471947194722181818E6084608706A
:101A13000AE608C3337005E633F4220822191919BC
:101A2300E7094709700AE709C3337005E733F4226E
:101A33000922E6084608C3134608336002E633F476
:101A430022E7094709C3134709336002E733F42246
:101A5300121A356025121A4460201219F770030216
:101A63001A01080808E76670101819E766700A1863
:101A730019E76670041819E76622F422121A356012
:101A83001C121A4460171219F77007121A01700119
:101A9300D322C0D0121A017006D0D0B322C322338E
:101AA300D0D0501430E0F6C3E7960809E79608094A
:101AB300E7960809E796B32220E0D5E6970809E6FA
:101AC300970809E6970809E697B322121A35601BAF
:101AD300121A4460161219F77007121A01600CB338
:101AE30022C0D0121A017005D0D022C32233D0D025
:101AF300501330E0EBC3E7960809E7960809E79629
:101B03000809E7962220E0E4E6970809E697080922
:101B1300E6970809E6972200121A35604F121A4415
:101B23006012E7548066F6121A0B7011121A0170D4
:101B33003B090909F4F618F618F618F622121A20CA
:101B430070151219F708080860EAE6447FF618765C
:101B53008018E4F618F6221219F76016121A0170AB
:101B630012E4F608F608F608E65480F6090909189F
:101B7300181822EAC0E0EBC0E0ECC0E0EDC0E0E6FC
:101B830087F0A4FBACF008E687F0A42CFCE435F066
:101B9300FA1809E687F0A42C4B60027401CA35F0E9
:101BA300FCE433FB09E687F0D2F7A42CCB35F0FC39
:101BB3001908E687F0A42BCC35F0FBE433FD0819B4
:101BC300E687F0D2E7A42C4ACB35F0CD3400FC09EC
:101BD300E687F0D2E7A42DCC35F0FDE433FA0918FB
:101BE300E687F0D2F7A42CCD35F0CA3400FC08E622
:101BF30087F0D2E7D2F7A42ACC35F07A7E20E70B20
:101C03000ACB33CBCD33CDCC33CC33CB3350147061
:101C130004ED30E00ED2F1E4CD3DCDCC3CCC3B50D5
:101C230005DA05C2F1EB547FC63308E63392F0FBC5
:101C3300E73309E733C39A502D2B70190C0D4C4D24
:101C430070151806E608C333700D20F10AA2F013CD
:101C5300F6E418800B4024E4F630F002768018F6A0
:101C630018F618F68024D33B14501074FFA2F01317
:101C7300F6187680E418F618F6800FA2F013F6181B
:101C8300E63303F618ECF618EDF6D0E0FDD0E0FCF1
:101C9300D0E0FBD0E0FA22121A446046121A3560F3
:101CA3003DE9687008F618F618F618F6227480678E
:101CB300F7121CCE090909748067F722121A3560DE
:101CC3001D121A447005191919801A121A0B701F64
:101CD300121A20C37003E66733191919400718183D
:101CE300182208080874FFF618F618F618F62212D8
:101CF3001A206017121A01702192F01219F7701945
:101D0300501720F014080808090909E7F61819E71D
:101D1300F61819E7F61819E7F6221219F760E6E83C
:101D230069701F0808E62480F608E436F618547F25
:101D3300B47F0CE654806007F6E418F618F6221810
:101D43001822E9C6CC08C6CD08C6CE08C6CFC0E067
:101D5300E8C0E0EAC0E0EBC0E009E9F809E7FA0906
:101D6300E7FBE6F918E6F8C3EC98ED99EE9AEBC2B7
:101D7300E7F5F0EFC2E795F0500E600CEBCFFBEA0E
:101D8300CEFAE9CDF9E8CCF8EAA2E7D2E7FAEB33E9
:101D9300FB13F5F0EEA2E7D2E7FEEF33FFC5F01336
:101DA300A2E730E601B313C5F0C3C0E0C0F07F0083
:101DB300C39BFB605E9418600F401D14601AD0E053
:101DC30023F9D0E0F8021EA08AF0E9486003D2F0BC
:101DD300E4AFF0FAF9F8803BEB30E40D89F0EA6008
:101DE30003D2F0E4AFF0F9CAF8EB30E30D88F0EF7B
:101DF3006002D2F0AFF0E4CAC9F8EB54076014FBF9
:101E0300C3EA13FAE913F9E813F8EF135002D2E027
:101E1300FFDBEDD0E0C0E030E739C3E49FFFF5F02E
:101E2300EC98FC42F0ED99FD42F0EE9AFE42F0D0C0
:101E3300E0F9D0E0F8E5F0607AE923F9EE20E74233
:101E4300D8028067C3EF33FFEC33FCED33FDEE3391
:101E5300FE80EAEC28FCED39FDEE3AFED0E023F9F2
:101E6300D0E0F84002801BC3EE13FEED13FDEC132C
:101E7300FCEF135002D2E0FF08B800067F7F74FF27
:101E8300802EEF3350178CF020F00260100CBC0052
:101E93000C0DBD00080EBE000408E860DFE933E85E
:101EA30013FFEE2313FE4F4D4C8008E95480FFE4EB
:101EB300FEFDFCEE33EF33F47004FCFD7E80D0E0D6
:101EC300FBD0E0FAD0E0F8D0E0CFC618CEC618CDEC
:101ED300C618CCC6F922121A357004181818221223
:101EE3001A44700D74FFF61819F61819F61819F636
:101EF30022E7548066F61219F7700F121A0170F078
:101F030014F608F608F608F680D1121A01700CF6DA
:101F130008F608768008E6447F80EC121A23700CDA
:101F2300121A0E60BFE65480F6E480BB121A0E70DC
:101F33000519191980A5E869700C763F1876801881
:101F4300F618F6E8F922E6CDC0E018ECC0E0E63377
:101F5300CD33CDD313F6E719FCE7191933CC33C3CB
:101F6300947F400ECD9D502408E65480F6E418F685
:101F7300800FF4043D14501408E6447FF61876806D
:101F8300E418F618F6D0E0FCD0E0FD22CCD313CC55
:101F9300FD18E4C6CBC0E018E4C6CAC0E00808EDEB
:101FA30008C633E613F618E433C675F003C3CA97BD
:101FB300CA09CB97CB199C40047D08802EBD000332
:101FC30002208216B6FF050606081618C3CA33CACE
:101FD300CB33CB33CA27CA09CB37CB193CC37D08D4
:101FE300803E187D0820E75CC633C6CA33CACB33AC
:101FF300CB33DDF1D5F0EB30E77BCA97CA09CB973A
:102003004ACB199C406F4B7025E620E0218066186F
:102013007D08C3CA97CA09CB97CB199CD3C633C6CD
:10202300CA33CACB33CB3350C9DDE7D5F0E1D3E4B0
:10203300C636C608C636C608C636C608C636C61865
:1020430018188031C3CA97CA09CB97CB199CB340E0
:1020530097C633C6CA33CACB33CB33DD34D5F02E60
:10206300C6A2E0C640C8CA27CA09CB37194A70BE00
:10207300CB3CB480B90808E63308E633601F181870
:1020830018D0E0FAD0E0FBD0E0FCD0E0FD22187DD0
:1020930008CA27CA09CB37CB193CD3808013F6185B
:1020A300E4B67F11F618B6FF0EF618C60470D20810
:1020B30008768080CAF618F618F680C5080808EA7C
:1020C300C0E0EBC0E086F0E7A4FA180986F0E7A4C5
:1020D3002AFA180986F0E7A42AFA180986F0E7A471
:1020E3002AFA1986F0E7A4FBE5F02AFA190886F024
:1020F300E7A42BFBE5F03AFA190886F0E7A42BFBDB
:10210300E5F03AFA18180986F0E7A4C5F02BFBE4CA
:102113003AFA1908E7C5F0C6A426F6E5F03BFBE456
:102123003AFA1886F0E7A4F6E5F00826F6E43B0849
:10213300F6E43A08F6D0E0FBD0E0FA22E4CFC0E0C0
:10214300E4CEC0E0E4CDC0E0E4CCC0E075F020C351
:10215300E633F608E633F608E633F608E633F61810
:102163001818EC33FCED33FDEE33FEEF33FFC3EC15
:102173009709ED9709EE9709EF97191919400FFF82
:10218300EC97FC09ED97FD09EE97FE191906D5F0BA
:10219300BEECF709EDF709EEF709EFF7191919D0B6
:1021A300E0FCD0E0FDD0E0FED0E0FF22181818E4F8
:1021B300C396F608E496F608E496F608E496F62243
:1021C3006016080808C6C313C618C613C618C61374
:1021D300C618C613C6D5E0EA2270090808082260AB
:1021E30016181818C6C333C608C633C608C633C67E
:1021F30008C633C6D5E0EA22E627F60809E637F62D
:102203000809E637F60809E637F622E026F608A3BA
:10221300E036F608A3E036F608A3E036F622E02619
:10222300F008A3E036F008A3E036F008A3E036F0A8
:1022330022C3E697F60809E697F60809E697F60833
:1022430009E697F622C3E0C696F608A3E0C696F61B
:1022530008A3E0C696F608A3E0C696F622C3E09666
:10226300F008A3E096F008A3E096F008A3E096F048
:1022730022E657F60809E657F60809E657F608096D
:10228300E657F622E056F608A3E056F608A3E05612
:10229300F608A3E056F622E056F008A3E056F0084D
:1022A300A3E056F008A3E056F022E647F60809E655
:1022B30047F60809E647F60809E647F622E046F638
:1022C30008A3E046F608A3E046F608A3E046F62294
:1022D300E0F608A3E0F608A3E0F608A3E0F622E69A
:1022E300F008A3E6F008A3E6F008A3E6F022E0FA7C
:1022F300A3E0FBA3E0FCA3E0FD22EAF0A3EBF0A341
:10230300ECF0A3EDF022CAC0E0E6F0A308DAFAD0BD
:10231300E0FA22CAC0E0E0A3C582CCC582C583CD62
:10232300C583F0A3C582CCC582C583CDC583DAE658
:10233300D0E0CA22C3E498F8E499F91223788026FE
:10234300C3E49AFAE49BFBE920E7E9122378E498D3
:10235300F8E499F922C3E498F8E499F9122378E4AC
:1023630098F8E499F9C3E49AFAE49BFB22EB20E79B
:10237300CFE920E7E0B90010BB0008E88AF084F851
:10238300AAF022E4FBC8FA22EB70227B10C833C800
:10239300C933C9335007C39AC3DBF280069A50018D
:1023A3002ADBEAC833F4C8C933F4C9FA2275F00842
:1023B300E4C833C8C933C933C99AC99B5004C92A6D
:1023C300C93BD5F0ECFBC833F4C8E4C9FA22600D6D
:1023D30008C6A2E713C618C613C6D5E0F322600CDD
:1023E30008C6C313C618C613C6D5E0F42270042268
:1023F300600D18C6C333C608C633C6D5E0F4182229
:10240300251810AF08F518400215198008F5184073
:10241300021519D2AF22C0D0251810AF08F51850F5
:102423000205198008F51850020519D2AFD0D02241
:102433002518F58210AF08F518400215198008F524
:102443001840021519D2AF851983222518F582E4A5
:102453003519F58322E4732518C582C0E0E51934E4
:10246300FFC583C0E0E518C3958224F810AF088543
:1024730083198582188008858319858218D2AFCE87
:10248300F0A3E520F0A37808E608F0A3DEFAEFF066
:10249300A3E58124FAF8E608F0A3E608F0A3E6082A
:1024A300F0A30808E608F0A3E608F0A31581158158
:1024B300D0E0FED0E0F8158115811581E8C0E0EE8B
:1024C300C0E0222518C582C0E0E51934FFC583C0EA
:1024D300E0E518C3958224F910AF08858319858236
:1024E300188008858319858218D2AFCEF0A3E52022
:1024F300F0A37808E608F0A3DEFAEFF0A3E5812461
:10250300FBF8E608F0A3E608F0A30808E608F0A342
:10251300E608F0A315811581D0E0FED0E0F815811F
:102523001581E8C0E0EEC0E022851983851882E0BA
:10253300A3FEE0A3F5207808E0A3F608DFFAE0A302
:10254300FFE0A3C0E0E0A3C0E0E0A3C0E0E0A3C0DD
:10255300E0E0A3C0E010AF088582188583198008E6
:10256300858218858319D2AFD083D0820201228558
:102573001983851882E0A3FEE0A3F5207808E0A381
:10258300F608DFFAE0A3FFE0A3C0E0E0A3C0E0E0C9
:10259300A3C0E0E0A3C0E010AF08858218858319CB
:1025A3008008858218858319D2AFD083D08222C058
:1025B300D02518C582C0E0E51934FFC583C0E0E526
:1025C30018C3958224F310AF088583198582188078
:1025D30008858319858218D2AFC8F0A3E9F0A3EA6E
:1025E300F0A3EBF0A37908E709F0A3D8FAECF0A382
:1025F300EDF0A3EEF0A3EFF0A3D0E0F0A3D0E0F072
:10260300A3D0E0F0A3E520F0A3E5F0F0A322851921
:1026130083851882E0C0E0A3E0F9A3E0FAA3E0FB1E
:10262300A37808E0F608A3DFFAE0FCA3E0FDA3E04B
:10263300FEA3E0FFA3E0C0E0A3E0C0E0A3E0F5D089
:10264300A3E0F520A3E0A3F5F010AF088583198577
:1026530082188008858319858218D2AFD082D083EF
:10266300D0E0F8D0E0327404800674028002740172
:10267300C0E0F404122433D0E0122309227404804E
:102683000474028000CCC0E0EDC0E0E518C39CCC2C
:10269300AD1950011D10AF068C188D1980068C18CA
:1026A3008D19D2AF122316D0E0FDD0E0FC22D083E7
:1026B300D082E9C0E0E493A3C386F0C5F095F0F9B6
:1026C30008E493A386F0C5F095F0700BE493A3C3DD
:1026D300994005E9048002A3E475F002A42582F57C
:1026E30082E5F03583F583D0E0F9E493A3C0E0E419
:1026F30093C0E022D083D082CCC0E0E493A36006F1
:102703001227211470FAE493A36006122740147071
:10271300FAD0E0FCE493A3C0E0E493C0E022C0E07D
:10272300E493A3D39C5010E493A3C39C400AD0E04A
:10273300D0E0D0E0022714A3A3A3D0E022C0E0E4BA
:1027430093A36C7009D0E0D0E0D0E0022714A3A3D8
:10275300D0E022D083D082ECC0E0EDC0E0E493A3CC
:10276300FCE493A3FDED4C600D1227A2EC24FFFCC7
:10277300ED34FFFD80EFE493A3FCE493A3FDED4C64
:10278300600D1227E1EC24FFFCED34FFFD80EFD058
:10279300E0FDD0E0FCE493A3C0E0E493C0E022C0FA
:1027A300E0C3E49396087401939618400FE493668C
:1027B300700808740193661870007019A3A3C3E42A
:1027C3009396087401939618A3A3400DD0E0D0E02C
:1027D300D0E0022792A3A3A3A3A3A3D0E022C0E047
:1027E300C0F088F0E493667008087401936618706B
:1027F30000A8F0A3A3700BD0F0D0E0D0E0D0E002AB
:102803002792A3A3D0F0D0E022C2AF02000022C0DF
:10281300E074F21225B2A2AFE433FED2AFE589A28F
:10282300E04006E589A2E150031207DD75890075D2
:102833008900C2C5EEA2E092AF7F01022611C0E07B
:10284300C0D0E8C0E0E9C0E0E5A8D2AFC2C7A2E7C4
:10285300A2E792AFD0E0F9D0E0F8D0D0D0E0327464
:10286300F51224C6EAFEEBFFEE2434F8EF3400F948
:1028730088088909EE2435F582EF3400F583E0F802
:10288300EE2437F582EF3400F583E0F50AEC850A90
:10289300F0A4FCAAF0850AF0EDA42AFDE82CF8E4E4
:1028A3003DF97A257B00122378EA8508828509831E
:1028B300F0F8740758F97401B900028004C333D9DE
:1028C300FCFAE8131313541FF8EE28F8EF3400F959
:1028D300E8245DF582E93400F583E05A6008EE24CC
:1028E30034F582EF802CEE2434F582EF3400F58347
:1028F300E0C0E0EE2436F582EF3400F583E0F5F036
:10290300D0E084A8F0EE28F8EF3400F9E82438F595
:1029130082E93400F583E0F97F0402257274F5122D
:1029230024C6EAFEEBFFEE2434F582EF3400F58390
:10293300E0C0E0EE2435F582EF3400F583D0E0F01B
:102943008E828F83A3A3A3A3A3A3A3C082C0838EDA
:10295300828F83A3A3A3A3A3E0F8A3E0F9D083D03A
:1029630082E0C398F508A3E099F509EE247FF58288
:10297300EF3400F583E064017069EE2480F582EFA3
:102983003400F583E0F8A3E0F98E828F83A3A3A339
:10299300A3A3A3A3E0FCA3E0FD8E828F83A3A3A341
:1029A300A3A3E0FAA3E0FBC3EA9CEB9D5010C3ECA6
:1029B30098ED99402EC3EA98EB995027800EC3EA0D
:1029C30098EB994007C3EC98ED9940177C877D09F4
:1029D300EEFAEFFB1213F5EE247FF582EF3400F5E8
:1029E30083E4F0EE2434F8EF3400F9E8FCE9FDEE7B
:1029F3002435F582EF3400F583E0F8EE2437F582D1
:102A0300EF3400F583E0F50AE508850AF0A4F5083C
:102A1300AAF0850AF0E509A42AF509E82508F8E4EF
:102A23003509F97A257B00122378EA8C828D83F0AD
:102A3300F8740758F97401B900028004C333D9FC50
:102A4300FAE8131313541FF8EE28F8EF3400F9E8EB
:102A5300245DF582E93400F583E05A6008EE2434FE
:102A6300F582EF802CEE2434F582EF3400F583E019
:102A7300C0E0EE2436F582EF3400F583E0F5F0D0C4
:102A8300E084A8F0EE28F8EF3400F9E82438F58262
:102A9300E93400F583E0F912337502291BC082C0C3
:102AA30083851882851983E0F8A3E0F9C3EA9CEBD8
:102AB3009D5010C3EC98ED99401BC3EA98EB9950D5
:102AC30014800EC3EA98EB994007C3EC98ED994044
:102AD30004790180027900D083D08222EAC39CFA70
:102AE300EB9DFB2274EF1224C690084DE06408604E
:102AF30005E06407702A9061C8E0602490087BE0D9
:102B0300F4601DE0F875F003A4C8AAF02AF9747DF7
:102B130028FE740839FF8E828F83A3A3A3E070037A
:102B2300022C17906060E0C0E0EE2468F582EF3479
:102B330000F583D0E0F0750CF0750D09750800758C
:102B43000900E5D914F50AE5D95403F50E601774A5
:102B530003650E605CE50A6010EE2467F582EF34CE
:102B630000F583E07003022BFC9009EBE064016045
:102B73002AEE2482F582EF3400F583E060047804C2
:102B830080027800850A08E508C398FA95E0FB12ED
:102B930012BD8A088B09EA450970051215E780748E
:102BA300EE2482F582EF3400F583E070048A0C8B07
:102BB3000DE50A6012850C82850D83F50BE5D9F0CE
:102BC300A3150BE50B70F6EE2482F582EF3400F5C6
:102BD30083E0604474FC250AF50A780C12266DAC78
:102BE3000AA90EEEFAEFFB1214917402122419E9EA
:102BF3007026AA08AB09120B3D793D8E828F83A301
:102C0300A3A3A3E0FA7B00121191EEFAEFFB1214D7
:102C13000D1214A3790080747403650E6056850A3F
:102C230010751100781012266DAC0CAD0DAA08AB0F
:102C33000912146D7402122419EE2468F582EF341C
:102C430000F583E064807004747F8001E0F50C7804
:102C53000C122671E50EF50C780C122671A90AAC3C
:102C630008AD0990087BE0FA7B001211557402123B
:102C73002419801390084DE06408600BAC0CAD0D73
:102C8300EEFAEFFB1214FD1215F379017F0A022508
:102C93007274F51224C674FC122403EAFEEBFF8956
:102CA30008A2AFE433F509C2AF806AEE2463F8EFFC
:102CB3003400F97A007B00A2AFE433F50AC2AF888F
:102CC300828983E0FCA3E0FDEC4D603A888289832E
:102CD300E0FAA3E0FB8A828B83E0FCA3E0FD888219
:102CE3008983ECF0A3EDF08A828B83E4F0A3F08870
:102CF300828983E0FCA3E0FDEC4D700A888289831E
:102D0300A3A3E4F0A3F0E50AA2E092AF120B3D9077
:102D1300098EE004F0EE2463F582EF3400F583E0DE
:102D2300F8A3E0F9E849603DEE2463F582EF34004F
:102D3300F583E02402FAA3E03400FBEA2402F50A57
:102D4300EB3400F50B780A12266D8A828B83E0FC44
:102D5300A3E0F9EEFAEFFB1214317402122419E91D
:102D63007003022CAE90098EE0606390098FE0F847
:102D730090098EE0C398500C740265087050900956
:102D830090E0604A8E828F83A3A3A3A3E085188279
:102D9300851983F0A3E4F090098EE0F874021224FD
:102DA3004EE8F0A3E4F090098EE0F890098DE02856
:102DB300F0740212244EAC82AD8385188285198388
:102DC300AA82AB83790112116190098EE4F0E509BF
:102DD300A2E092AF740412241902291B00852187F3
:102DE3008522C622C0E0C0D0E8C0E0E9C0E0EAC066
:102DF300E0EBC0E0ECC0E0EDC0E0EEC0E0C008C036
:102E030009C00AC00BC082C083C0F0A2AFE433FE86
:102E1300C2AF759B00906182E0A2E05012E591A2DF
:102E2300E0500C7591FE740165217003122AE7E0EE
:102E3300A2E55051E591A2E5504B7591DF90084D05
:102E4300E064076005E06408702374016521703550
:102E5300790190087BE0FA75F003A4CAA8F028FB77
:102E6300747D2AFA74083BFB122C948018E0640DDD
:102E7300701390086FE004F064287002E4F07A00A5
:102E8300E0F91215F9906182E0A2E64003022F2EC9
:102E9300E591A2E64003022F2E7591BF90084DE005
:102EA30064057008121527121533800312152D754A
:102EB3002100121587E990084EF0790012157B1254
:102EC30013657A017B0090084CE0F912051F907896
:102ED30003E0644270559009EFE014F0704DC2AF07
:102EE300122EE600782AD0E0F618D0E0F6E59F54DB
:102EF3000770057509FF800375097FC4C0E0782951
:102F0300E6F50808E65509F509740B78081223E17C
:102F1300D0E02508F8906270E0A2E740F8E8C333F8
:102F2300906272F0906270E0D2E0F0906181E0A272
:102F3300E35009E5E9A2E3500375E9F7A3E0A2E74B
:102F43005009E591A2E7500375917FEEA2E092AF9D
:102F5300D0F0D083D082D00BD00AD009D008D0E0F3
:102F6300FED0E0FDD0E0FCD0E0FBD0E0FAD0E0F909
:102F7300D0E0F8D0D0D0E032C0E0C0D0C082C0836F
:102F8300906183E0A2E05009E5BFA2E0500375BF62
:102F9300FEE0A2E15009E5BFA2E1500375BFFDE0E9
:102FA300A2E25009E5BFA2E2500375BFFBE0A2E332
:102FB3005009E5BFA2E3500375BFF7E0A2E450094F
:102FC300E5BFA2E4500375BFEFE0A2E55009E5BFFA
:102FD300A2E5500375BFDFE0A2E65009E5BFA2E614
:102FE300500375BFBFD083D0828088C0E0C0D0E8D3
:102FF300C0E0E9C0E0EAC0E0EBC0E0ECC0E0EDC057
:10300300E0C0F0E5A7A2E6500FE5A1A2E650095300
:10301300A7BF75A1BF123053E5A7A2E5500CE5A1E8
:10302300A2E5500653A7DF75A1DFE5A7A2E150098A
:10303300E5A1A2E1500375A1FDE5A7A2E2500CE5CD
:10304300A1A2E2500653A7FB75A1FBD0F0022F64A7
:1030530074F81224C675210190084DE064067015BA
:103063001214C18A828B83A3A3A3A3A3A3E0FAA30D
:10307300E0FB121515A2AFE433FED2AF900853E084
:10308300640170187A207B0090084CE0F91205B5B2
:103093007A207B0090084CE0F9120525906182E0CC
:1030A300D2E6F09009ECE0602185C62280169008F4
:1030B30052E064017008E5C654F84405F5C653BEF2
:1030C300FC122DE07401652160E4EEA2E092AF7F73
:1030D30001022572008E238F24858228858327850C
:1030E3001882851983E0CEA3E0CF852882852783C4
:1030F300EBC9EAC8EDCBECCA75F010C3E833C8E9F5
:1031030033C9EA33CAEB33CBC3EA9EF526EB9FF50B
:1031130025B35004AB25AA26EC33CCED33CDD5F043
:10312300DAAE23AF242274ED1224C68A088B098CED
:103133000A8D0B741312244E780C1222D37808795B
:103143000C1218A77510017511C8751200751300BC
:1031530050127808790C122234781079081218A7C3
:1031630050168010780C79081222347810790C12DA
:1031730018A740047901800279007F0C022572743C
:10318300ED1224C68A088B098C0A8D0B7413122442
:103193004E780C1222D3780C79081218A7401178B4
:1031A30008790C122234AA08AB09AC0AAD0B8022B1
:1031B3007510007511007512007513017810790CE4
:1031C300122234781079081221FBAA10AB11AC1229
:1031D300AD1380A68A828B837508FF7509FF750A74
:1031E300FF750B00780812229A7F0402257274F58A
:1031F3001224C68C828D8378081222D38A828B8311
:103203007808122260EA2404F8EB3400F98C828DEA
:1032130083A3A3A3A3E0FCA3E0FD88828983C3E087
:103223009CF0A3E09DF088828983C3E09420A3E00F
:10323300944E40268A828B837508FF7509FF750AB1
:10324300FF750BFF78081222218A828B83A3A3A325
:10325300A3E02420F0A3E0344EF00231D774F5123A
:1032630024C6E9FE9009A2E0FAA3E0FBEEC333F81B
:10327300E433F974AD28F582748139F583E02AF5D6
:1032830008A3E03BF509780812266D7A407B427C5F
:103293000F7D001230D874021224198A088B098C0E
:1032A3000A8D0B741078081221C3AA08AB097F0496
:1032B30002257274F11224C68A0C8B0D8C0E8D0FAD
:1032C300740F12244EE0FAA3E0FB741112244EE0B3
:1032D300F508A3E0F509780812266DEA2401F5083C
:1032E300EB3400F509E4F50AF50B780C79081220A4
:1032F300BF750871750902780C79081220BFAA0CF2
:10330300AB0DAC0EAD0F1230D874021224198B0919
:10331300EA450960047A0180027A00EC2AFCED3464
:1033230000FD741312244EE0F8A3E0F9E8FEE9FF70
:10333300ECF8EDF97A717B02122378880889098EFB
:10334300828F8378081222E2ECF8EDF97A717B021E
:103353001223788A088B09740578081223F08E8269
:103363008F83A3A3A3A3E508F0A3E509F07F0802D5
:103373002572C082C083E9906000F0D083D082229E
:103383000020202020202020202028282828282032
:10339300202020202020202020202020202020202A
:1033A3002088101010101010101010101010101092
:1033B3001004040404040404040404101010101082
:1033C300101041414141414101010101010101014C
:1033D300010101010101010101010101101010109E
:1033E300101042424242424202020202020202021E
:1033F3000202020202020202020202021010101072
:1034030020FFFFFFFFFFFFFFFFC082C083E9900D96
:10341300E9F002363674F712245AE990078CF07CEF
:10342300C47D077AFF7BFF1210AD90078D74FFF008
:10343300A3F0A3E4F0A3F0790512103B90078CE00E
:10344300F9120F5D7AC57B1012126F7F0102252CD2
:1034530074F412245A8A088B09EB54806030900765
:103463008CE0F91205078A0A8B0BAE0AAF0BEE4FFD
:1034730060138E828F83E064B0700312104DEEFAF6
:10348300EFFB1204F5AA08E5096480FB80047A00C7
:103493007B0002360574F212245A74FC122403EAE8
:1034A300FEEBFFEE4F6038740212244EEEF0A3EFF2
:1034B30012386AECF0A3ED12386AAA82AB83120FBA
:1034C30057E9F5087073741212244E12441EE50A6C
:1034D300450B60658E828F83123546EE4F700575FE
:1034E300080280557A067B001205678A0C8B0DA8AB
:1034F3000CA90DE8497005750813803D88828983FE
:10350300E4123550A3A3EEF0A3EF1248B7E50AF097
:10351300A3E50BF09007921235D89007926017E05D
:10352300FCA3E08003EAFCEBFD8C828D831235D88B
:1035330070F38C828D83124343A9087404122419F7
:10354300024AB9A3A3A3A3E0FEA3E0FF22F0A3F0E2
:10355300888289832274F212245A890AE975F01742
:10356300A4FEAFF0900791E4F090078F1235D86076
:103573000A12056D90078FE4F0A3F0EEFAEFFB1249
:1035830005678A088B09EA4509602FEEFCEFFD7990
:10359300001204E390078FE508F0A3E509F07B0030
:1035A30080081235C2E4F0A3F00BEBC3950A40F296
:1035B300E50A900791F0790080027913024AB9EB8A
:1035C30075F017A4F8A9F090078FE028FAA3E03963
:1035D3008A82F583221240D9EA4B2274F412245AC8
:1035E3007900EAA2E0501B75089C750982780812DD
:1035F300266D7C047D007AEB7B0D1210357402126C
:1036030024197F0402252CC082C0839007921236AE
:103613003D601C88828983A3A3E06A7003A3E06BE7
:103623008882898370E8A3A3A3A31240D580047A78
:10363300007B00D083D082020122124B8CE8492206
:1036430074EE12245A74FC122403EAFEEBFF85186D
:1036530082851983E4F0A3F0EE2402124327EE24BB
:1036630005123858EE2404F50EEF123C3DE024FE1B
:10367300603924FC604624FE605224FE605E24FE12
:10368300700302375D24FE70030237D524FE7003F6
:103693000237E424FE70030237F324FC700302387C
:1036A3000224FE700302381102384E9007AB7417E0
:1036B300F0A3E4123872120CD502384E85188285B5
:1036C3001983AC82AD8312105302381E851882858C
:1036D3001983AC82AD8312105902381E850C0885FC
:1036E3000D09740212244EAC82AD838508828509CC
:1036F300831240D5120F7B8A0C8B0DAC0CAD0DECF5
:103703004D6042E4F50CF50D780C12266D750CAB8B
:10371300750D07780C12266D750CAC750D07780CBA
:1037230012266D740812244E12268479161240CF85
:103733001210957408122419E9F50C700B1240CB82
:10374300120CED800F750C018508828509831238F0
:1037530060124343850C08023821740212244EACD4
:1037630082AD83850C82850D831240D5120F7B8A2F
:10377300108B11AC10AD11EC4D6043850C82850D9F
:1037830083A3A31226847510AB7511077810122634
:103793006D7510AC751107781012266D740812241C
:1037A3004E12268479161240CF12109574081224F3
:1037B30019E9F509700B1240CB120CF3800F750950
:1037C30001850C82850D83123860124343850908F5
:1037D300804C851882851983AC82AD8312105F807B
:1037E3003A851882851983AC82AD83121065802BCC
:1037F300851882851983AC82AD8312106B801C857A
:103803001882851983AC82AD83121071800D8518DF
:1038130082851983AC82AD83121077E9F508E50838
:1038230060298E828F83A3E06414601F850E8285D6
:103833000F83E09007AB12386A124B889007AC12E3
:103843004343E508A3123872120CCFEEFAEFFB12D2
:103853000FF902422FF50CEF3400F50D22124B8CB9
:1038630085188285198322F085188285198322F0B1
:103873007CAB7D07850A82850B831240D92274EEC7
:1038830012245A74FC1224038A0A8B0B8C0E8D0F9C
:10389300EA2405F508EB3400F5097C157D00790071
:1038A3007AAB7B071204E3E5082402F50CE5091261
:1038B300385B85188285198385821085831178107A
:1038C30012266D850882850983A3A3A3A3123D85D0
:1038D30012266DE5082405F510E5093400F5117885
:1038E3001012266D850C82850D831240DF120F7531
:1038F30074061224198A108B11AE10AF11E50A2435
:1039030002F50AE50B12432AEE4F7003023A478091
:1039130017740212244E1240D588828983EAF0A3D9
:10392300EBF09007ABE004F09007ABE0C3940540E5
:1039330003023A47E4F510F511781012266D75105D
:1039430094751107781012266D7510957511077807
:103953001012266D740612244E1226847910EEFC82
:10396300EFFD1240CF1210957408122419E9705E0E
:10397300850882850983A3A3A3A3A3A3A3E0F89047
:103983000794E0687048123D8512266D7C957D078B
:10399300E5082408FAE5093400FB1204DD74021279
:1039A3002419E960298E828F83A3A3A3A31240D590
:1039B3009007ABE0F510740278101223F074AC2575
:1039C30010F58274073511F583EAF0A3EBF0740266
:1039D30012244E858210858311781012266D74028D
:1039E30012244E122684850C82850D83124B9D1260
:1039F3000F8174041224198A108B11AE10AF119029
:103A030007ABE0F510751100740278101223F074FF
:103A1300AB2510F874073511F988828983A3123511
:103A2300D8700302390BE82403F8E93400F9EE4FA8
:103A330060030239148882898374FFF0A3F090072E
:103A4300ABE004F09007ABE0600A1240CB120CE14C
:103A53007900800B85088285098312433A790A022B
:103A6300422F74EA12245A74FE1224038C128D130B
:103A7300EA2405F50CEB124BA712354A75080075BD
:103A83000900EA2402F510EB3400F511851882854C
:103A9300198385820A85830B780A12266D850C8229
:103AA300850D83A3A3A3A3123C4712266DE50C2423
:103AB30005F50AE50D12432A780A12266D850C8254
:103AC300850D83124B9B120F7574061224198A0AF3
:103AD3008B0BEA450B7003023BF8EA2404F50EEB6B
:103AE300123C3D12354A8A828B83A3A3A3E0F98556
:103AF30010828511831240D5120F63E9F509600323
:103B0300023BF8E4F514F515781412266D75149438
:103B1300751507781412266D7514957515077814A5
:103B230012266D740612244E1226847913AC0AAD44
:103B33000B8510828511831240D5121095740812DB
:103B43002419E9F5096003023BF8900794E0F8E5CE
:103B5300087009E024029007ACF080179007ACE0EE
:103B6300FCE82402FAE43400FBEA6C7001EB600326
:103B7300023BFC850882AA82123D7C9414123D7498
:103B83005073850E82850F83E0C0E074AD2A123C2A
:103B930034D0E0F00508850E82850F83A3E0C0E0F2
:103BA30085080A74AD250A123C34D0E0F00508906C
:103BB3000794123C4712266D7C957D0785080A748D
:103BC300AD250AFA74073400FB1204CB74021224E5
:103BD30019900794E02508F50874FF6E700374FFCD
:103BE3006F6012EE24010EEF3400FFE508C3941456
:103BF3005003023A8FE5086013123FC08510828597
:103C030011831240D5120CE779008014E509700383
:103C130075090A851282851383EEF0A3EFF0A909D3
:103C230074021224197F0E02252C85080C74AD250D
:103C33000CF58274073400F583223400F50F850EEA
:103C430082F583221248CA2274EE12245A74FE1299
:103C530024038C0E8D0FEA2405F50CEB12385B75EB
:103C63000B009007ABE4F0F50AEA2402F508EB3405
:103C730000F50980499007ABE0FA900794E0F81249
:103C83003D7C9417123D74400D9007ABE0F8741619
:103C9300C398900794F0123D8512266D7C957D079D
:103CA30074AC2AFA74073400FB1204CB7402122496
:103CB30019900794E0F89007ABE028F0050AE50CAB
:103CC3002416F582E50D123C38E0F8E50AC3984066
:103CD30003023D5D9007ABE0C39416507DE50AC334
:103CE30033F8E433F9E50C28FEE50D39FF85188236
:103CF300851983AC82AD838E828F831240D5120FD8
:103D03007B8A108B11AC10AD11EC4D7005750B0156
:103D13008043E4F510F511781012266D7510947533
:103D23001107781012266D7510957511077810120A
:103D3300266D740612244E12268479168508828510
:103D430009831240D51210957408122419E9F50B52
:103D53007003023C7812433680107CAB7D078508E4
:103D6300828509831240D5120CF9A90B7402024211
:103D730031E99400C365D03322EA28F8E43400F92A
:103D8300E822E0F51075110078102274EA12245A23
:103D930074FC1224038A0C8B0D8C128D13EA2405F8
:103DA300F50AEB12432A750800750900E50A240297
:103DB300F510E50B3400F511740212244E85820EC2
:103DC30085830F780E12266D850A82850B83A3A344
:103DD300A3A312487612266DE50A2405F50EE50B1A
:103DE3003400F50F780E12266D851082851183122B
:103DF30043301240CF120F7574061224198A0E8BAA
:103E03000FAE0EAF0FE50C2402F50EE50D3400F5F1
:103E13000F80408882898374FFF00508123C2D745B
:103E2300FFF00508900794E0F50C750D00780C126F
:103E3300266D7C957D0785080C74AD250CFA7407F7
:103E43003400FB1204CB7402122419900794E0256A
:103E530008F508EE4F60718E828F83A3A3A3E0F968
:103E6300850E82850F831240D5120F63E9F509EEA3
:103E73002404123858E97044E4F514F51578141243
:103E8300266D751494751507781412266D7514959F
:103E9300751507781412266D740812244E122684A1
:103EA3007911EEFCEFFD850E82850F831240D5124A
:103EB30010957408122419E9F5096027850C828589
:103EC3000D83123FB6124343E5087003023F9C1271
:103ED3003FC0850E82850F831240D5120CFF7900F7
:103EE300023FB1850882AA82EA9007947009E02410
:103EF300049007ACF08022E0F89007ACE0F514E8FA
:103F03002404FCE43400FDEC65147001ED70C01270
:103F13003D7C9412123D7450B6850C82850D83E06E
:103F2300C0E074AD2A123C34D0E0F00508850C8261
:103F3300850D83A3E0C0E0123C2DD0E0123FD28573
:103F4300820C85830D780C12266D740412244E1294
:103F53002684851082851183124B9D120F81740470
:103F63001224198A0C8B0DAE0CAF0D85080C74ADA1
:103F7300250CF874073400F9EE4F7003023E1685E2
:103F83001882851983E088828983123FD2A3E0C017
:103F9300E0123C2DD0E0023E24E509700375090AC6
:103FA300850A82850B83123FB6124343A909740421
:103FB300023C25124B8C851282851383229007AC19
:103FC300E0F5F0E508849007ABF07CAB7D0722F0C9
:103FD30005088518828519832274EC12245A74FE0D
:103FE3001224038A088B098C0E8D0FEA2405FEEB3D
:103FF3003400FF851882851983AC82AD838E828F4E
:10400300831240D5120F7B8A0A8B0BEE24181238C9
:1040130058EA450B70030240A61242185032851825
:10402300828519831240D51210898A108B11EA45B3
:1040330011606B7912AC0AAD0B8508828509831276
:1040430040D5851082851183122458E9F50A7058EA
:10405300E4F50AF50B780A12266D8E828F83A3A3EB
:10406300E0F50A780A12266DEE2403124327780A34
:1040730012266D8E828F831240DF12109B740612FC
:104083002419E9F50A7021850C82850D83E0701FE0
:104093008508828509831240D5120D058011750AA2
:1040A3000E8009750A018004E50A60031243368510
:1040B3000C82850D83E0600479008002A90A7402F2
:1040C3001224197F0C02252C7CAB7D07850A82857F
:1040D3000B831240D922E0FAA3E0FB22E0FCA3E029
:1040E300FD8508828509831240D92274EE12245A71
:1040F30074FE1224038A088B098C0C8D0DEA2405A7
:10410300FEEB3400FF750E00851882851983AC829F
:10411300AD838E828F831240D5120F7B8A0A8B0B5D
:10412300EA450B7003024204124218503585188287
:104133008519831240D51210898A0E8B0FEA450F19
:10414300605E7912AC0AAD0B850882850983124043
:10415300D5850E82850F83122458E9F50E6003027C
:10416300420785088285098312441EAA0AFB12109E
:104173007D8A108B11A810A911E849701E7AFF7B64
:10418300FF12107D8A108B11A810A911E849606CE9
:1041930088828983E50AF0A3E50BF0750A0080079E
:1041A300750E0E805F050A900791E0FAE50AC39A3F
:1041B300504AE50A75F017A4FAABF088828983A305
:1041C300A3E02AFAA3E03BFB8A828B83124330EC01
:1041D3004D70D2750A17750B00780A12266DEEFC26
:1041E300EFFD1204CB7402122419EEFCEFFD8508D7
:1041F300828509831240D5120D0B8014750E098038
:1042030003750E01124B84850C82850D8312434383
:10421300A90E023D6FE5082402F508E5093400F50F
:10422300098A828B83A3A3A3E0A2E5227404122448
:10423300197F0A02252C74EC12245A8C108D11EA72
:104243002405F50CEB12385B750F00EA2402F50A1E
:10425300EB12432A850A82F5831240D512107D8A18
:10426300088B09EA4509700302431C750E0080712F
:10427300850C82850D83E06401704F8E828F83A34A
:10428300A31226848E828F83A3A3A3A3E0F51275C2
:104293001300781212266DEE2405F512EF3400F5A3
:1042A30013781212266D1240CF12109B740612243B
:1042B30019E9F50F6014850C82850D83E4F0124B28
:1042C300848510828511831243437C177D00790016
:1042D300EEFAEFFB1204E38E828F83E4F0A3F00582
:1042E3000E900791E0F8E50EC398501EE50E75F0A9
:1042F30017A4F8A9F0850882850983A3A3124BB1FB
:10430300124330EC4D6003024273850882850983B2
:1043130074FFF0A3F0E50F70061240CF120D11A940
:104323000F0240C6F50AEF3400F50B22A3E0FCA30D
:10433300E0FD228E828F83124B8C850E82850F8344
:10434300E8F0A3E9F022C082C08390078DE06A7091
:1043530003A3E06B70067A8D7B0780047A007B00F1
:10436300023636C082C08378008C828D83E06A7007
:1043730003A3E06B7010E875F003A4F8A9F0EC2830
:10438300FAED39FB8015088C828D83A3A3A3E06A21
:104393007003A3E06B60DF7A007B0002363674F6AD
:1043A30012245A1210478A828B83E5824583700652
:1043B3007A007B008007A3A3A3A31240D5024A354A
:1043C30074F212245AE9FE740E12244E12441E741F
:1043D3001012244E1248968C828D83E0640270364C
:1043E300A3124B92F50CA3E0F9A80C7402687003B6
:1043F3007429697021750C02750D00780C12266DF5
:10440300780812266D780A12266DEEF91210BF7421
:104413000612241980027901024AB9E0F50AA3E0E1
:10442300F50B2274E812245A74FB122403E985184D
:1044330082851983F08A168B17ECFEEDFF75100049
:10444300741D12244E124B88741D12244E124343C2
:104453008E828F83A3A3A3E0A2E4502D741D1224A4
:104463004E1240D51210898A828B83E58245837070
:1044730003024867790AEEFCEFFDAA16AB17122474
:1044830058E9F510600302486A741F12244E12485B
:1044930096742112244E12441E742312244EE0F506
:1044A3000EA3E0F50F8E828F83E06402600302485F
:1044B30015A3124B88850882850983A385821285FB
:1044C3008313EE240612385888828983E0FAA3E026
:1044D300F9EA2400F514E439F51578141227560186
:1044E30000002801280A4507000228CF4503283C7D
:1044F3004500290647012931470229D246032906E7
:10450300470429B0471548E50E450F6003024810DC
:10451300850C82850D8312488BFAE9FB8A828B8393
:10452300E0850A82850B831248C112266D8A828B2D
:1045330083A3E0FCA3E002479AE50E450F60030264
:104543004810850A82850B837401F012489E850802
:1045530082850983F07C007D008E828F83A3A3A3D1
:10456300A3E02401FAA3E03400FB120F7BEA4B60C3
:10457300418A828B83E02402F8850A82850B83E0DB
:1045830028F0EA2404F8EB3400F988828983E08573
:1045930012828513831248D31248C112266D8A8270
:1045A3008B8312432FE5082403FAE5093400FB0249
:1045B300479F850A82850B83E02404F07C047D00F9
:1045C3007900AA12AB131204E302486AE50E450F01
:1045D300600302481012489EFEA3E0FF850A82850D
:1045E3000B837404F0EE850882850983F0EF85124E
:1045F30082851383F0740312244EAC82AD83EEFAEA
:10460300EFFB120F7B8A0C8B0DEA450D70030246FC
:10461300B38A828B83A3A3123546740112244E8579
:10462300820E85830F780E12266D740512244E12A6
:1046330026847CFF7DFF120F8174041224198B0FD3
:10464300EA450F7033850C82850D83124876122656
:104653006D850C82850D83A31226847C027D007AEE
:10466300C77B83120DAD7404122419E9700A740117
:1046730012244E74FFF0A3F08E828F83E0640270E5
:1046830039750C02750D00780C12266D8E828F839E
:1046930012432FE5082404FAE5093400FB1204CB86
:1046A3007402122419850A82850B83E0240280098F
:1046B300740112244EEEF0A3EFF0740112244E1293
:1046C3004887F0740112244EA312487F02480AE57A
:1046D3000E450F6003024810850C82850D8312433B
:1046E30030AA16AB171210B3850A82850B837402A6
:1046F300F0EA850882850983F0851282851383EBAE
:1047030002480DE50E450F600302481012489EF85B
:10471300A3E0F9850A82850B837402F0E885088299
:10472300850983F0E985128285138302480D850C80
:1047330082850D831240D51204C5EAFC8C82A882BF
:10474300C3950EE4950F405FE8650E7002E50F70A8
:10475300047C008022851882851983E0FAE50E2AFD
:10476300FAE50F3400FBC3EA98EB94005003E080B2
:1047730005E50ECCC39CFCEC850A82850B83F08C8B
:104783000A750B00780A12266D850C82850D83E06D
:10479300250EFCA3E0350FFDAA08AB091204CB7468
:1047A3000212241902486A75100702486AE50E4589
:1047B3000F705A850C82850D83124B88850A82857A
:1047C3000B83740712355212487F123552A3E085CA
:1047D3001282851383F0E82402FAE93400FB8A820B
:1047E3008B8312487F1248AE124887A31248B71230
:1047F3004890F0E82405F8E93400F98882898312A7
:104803004890A31248D3A3A3A3A3F0805A75100B17
:104813008055741D12244E1240D51210478A828B84
:1048230083E5824583603D124B88880C890DE845FA
:104833000D6031780E12266D780A12266D780812F3
:10484300266D740612244EE0F9EEFCEFFDAA16ABBA
:1048530017850C82850D831224587406122419E9D6
:10486300F510800375100EA91074051224197F101A
:1048730002252CE0F50E750F00780E22E0850882E4
:10488300850983221248DD22124B8CE8221248DD6F
:10489300A3A322E0F508A3E0F50922850C82850D88
:1048A30083E0F8A3E0F5838882E022A3A3F08A8261
:1048B3008B83A322F088828983A3A3A3A322F08AF4
:1048C300828B831248CA22E0F50A750B00780A220C
:1048D300F088828983A31248DD22E0850882850956
:1048E30083A3A32274EE12245A74FE1224038A0AA9
:1048F3008B0BECFAEDFB741412244EE0F510A3E0DD
:10490300F511741612244EE0FE741812244EE0F5CD
:104913000EA3E0F50F851882851983AC82AD83124F
:104923000F7B8A0C8B0DEA450D604985188285192A
:10493300831240D51210478A828B83E582458360B8
:104943002FA3A3124896E50845096024780E122682
:104953006D781012266DEEF9AC0CAD0DAA0AAB0BF7
:104963008508828509831224587404122419800649
:10497300790E80027901023D6F74F612245A74FE97
:10498300122403740C12244E12488B851882851945
:1049930083F0740112244EE9F0E4F508F509780870
:1049A30012266D750802780812266D740412244EBF
:1049B300858208858309780812266D12109B740678
:1049C3001224197402122419806874F712245AEA03
:1049D300FEEBFF89087CC47D071210B3EA54026022
:1049E3000BA908EEFAEFFB120F6F80027901023474
:1049F3004E74F612245A74FF6A700374FF6B7016B8
:104A03008C828D83124A3AE4F08C828D83A3A3A314
:104A1300124A3AA380181210838A088B09A808A99E
:104A230009E849600D8882898374FF123550A3A376
:104A3300E4F07F0202252C74FFF0A3F08C828D83B7
:104A4300A3A32274F612245A1210838A828B83E55D
:104A53008245836006A3A3E0FA80027A007B00808C
:104A6300D174F212245A8A088B09ECFEEDFF740EFE
:104A730012244EE0F50A1210838A0C8B0DA80CA9A0
:104A83000DE8497026EEFCEFFD7AFF7BFF121083E1
:104A93008A0C8B0DA80CA90DE849700479118016B6
:104AA30088828983E508F0A3E509F088828983A3D6
:104AB300A3E50AF079007F0602252C74EE12245A2E
:104AC300EAFEEBFF8C088D09890C741412244E1234
:104AD3004B88741612244E1240D5750D00E84960B8
:104AE30003024B7C7402650C6003024B7774121251
:104AF300244E124B92FCA3E0F9EC2400F50EE439AA
:104B0300F50FEAF4F8EBF4F9EC58F8E50F59F9E886
:104B130049705CE5082406F8ED3400F9880A890B2E
:104B23008882F583124B9D1210B38A108B11E50E08
:104B330065107004E50F65116042780E12266D85CD
:104B43000A82850B83124B9D1210B9740212241929
:104B5300E9F50D7027780E12266D85088285098385
:104B6300A3A3124B9B1210CB7402122419800D7550
:104B73000D808008750D0D8003750D0BA90D024284
:104B8300348E828F83124B8C22E0F8A3E0F9221239
:104B93004B8C88828983E022A3A3E0FCA3E0FDEE93
:104BA300FAEFFB223400F50D850C82F58322E02811
:104BB300FEA3E039FF8E828F832274F212245AEA15
:104BC300FEEBFF890B7401650B600E7402650B70BD
:104BD3006A790112128DE97062EEFAEFFB12107D11
:104BE3008A088B09EA45096047750A00800B7C1720
:104BF3007D0079001204E3050A900791E0F8E50AC5
:104C0300C3985021E50A75F017A4F8A9F085088226
:104C1300850983A3A3E028FAA3E039FB8A828B8367
:104C230012363D70C985088285098374FFF0A3F0AD
:104C33007CC47D07EEFAEFFB1210AD024AB974F2A1
:104C430012245A8A088B09ECFEEDFF740E12244ECF
:104C530012441E900DE9E0F4603D7A097B001204D2
:104C6300EFEA4B60328A828B8374B1F0A3E412487B
:104C7300B0A31248AEA3E508F0A3E509124C9DEEDC
:104C8300F0A3EF124C9DA3A3E50AF0A3E50BF0906C
:104C93000DE9E0F91204FB024AB9F08A828B83A37F
:104CA300A3A3A3A322C082C0839061907404F0A342
:104CB3007448F0A37402F09061807440F09061BC7A
:104CC3007403F09061877419F0906265741BF0901F
:104CD3006249E0C3941390619C400A7409F09060A8
:104CE3006674018007740DF0906066E4F090619A39
:104CF3007433F0A37455F09061A0743AF09009EA0C
:104D0300E064017009C291900851746780059008AE
:104D1300517461F090340AE493906186F090340406
:104D2300E493F46027E493540FF8906185E068609E
:104D330012E5C654804449F5C6E59E547F64497024
:104D4300F8E8F053C680E59E547F70FA7905121592
:104D5300DB024EFAC082C083E5A8F853A87E9061B7
:104D630081E4F0A3F0A3F0C2BA539AFEC289759B03
:104D730000C2C275E90075910075BF0075A9117570
:104D8300B905906181F0A374C0F0A3E4F0D2BA43F3
:104D93009A0174805842A8024EFAC082C08374F804
:104DA30012240390084FE0F8A3E0F9E849700302E6
:104DB3004ECB90084FE054406023790885188285D4
:104DC3001983AA82AB8312144F851882851983AA8B
:104DD30082AB8312113D90084FE054BFF0E0548042
:104DE3006010790C7A107B0A12144F90084FE0542C
:104DF3007FF0E0A2E0503190619A7433F0A37455D0
:104E0300F09061A0743AF09009EAE064017009C27D
:104E130091900851746780059008517461F01211E4
:104E23004390084FE054FEF0E05402603190619AE1
:104E3300743FF0A3745AF09061A0747FF09009EA74
:104E4300E064017009D29190085174718005900853
:104E530051746AF012114390084FE054FDF0E0548E
:104E6300046013903408E493906186F01211499022
:104E7300084FE054FBF0E054086013903409E493C6
:104E8300906186F012114990084FE054F7F0E05416
:104E930010601390340AE493906186F012114990E4
:104EA300084FE054EFF0E05420600A1211499008D3
:104EB3004FE054DFF0A3E05401600D121377121199
:104EC3004F900850E054FEF07408122419024EFA71
:104ED300C082C083E9600814600A14600C801390D8
:104EE30034088008903409800390340AE493906175
:104EF30086F08003F0A3F0D083D08202012274EC09
:104F030012245A74F4122403851882851983AC82FF
:104F1300AD8375838375825A740412231690340803
:104F230093F4600302508D907808E0C39402500319
:104F330002506D740412244EAC82AD837583827566
:104F4300824C740812231685188285198385821270
:104F5300858313740412244EAC82AD83750EFF75E2
:104F63000FFF7FFF7E00750C48750D788015740860
:104F73006E700302500174096E7003025001740ACB
:104F83006E607B850C82850D8378081222D38C8218
:104F93008D83A909E50AC9F88810741878081221C5
:104FA300C3E5104508F8C3E098A3E099850C828512
:104FB3000D8378081222D340188C828D837418785D
:104FC300081221C3E5104508F8E0C398F8A3E08070
:104FD3001C741878081221C3E5104508FAE9FB8C04
:104FE300828D83E0F8A3E0F9EAC398F8EB99F9C35B
:104FF300E8950EE9950F5006880E890FEEFF0EE532
:105003000C2404F50CE50D3400F50DEEC394135098
:1050130003024F7174FF650E700474FF650F602304
:105023008F08740278081223F074482508F58274F7
:10503300783509F58378081222D385128285138384
:10504300E508F0EC2402FCED3400FD8512828513A3
:1050530083A3858212858313740C12244EE5826C1C
:105063007003E5836D6003024F5F750801750900E6
:10507300780812266D740212244EAC82AD837A0234
:105083007B0D1207A77402122419740C1224197FC2
:105093000C02252CC082C0839061AE7468F0A374A7
:1050A3006AF090624574FBF0A304F053F4FD43FEF1
:1050B300029009EA7401F09061A0E0643A90619A69
:1050C30070237433F0A37455F09061A0743AF074B4
:1050D3000164017009C29190085174678028900897
:1050E3005174618021743FF0A3745AF09061A074ED
:1050F3007FF0740164017009D2919008517471803A
:1051030005900851746A024EF97F0802252CC0826B
:10511300C08390099CE06401700A9009A1E06004D7
:10512300790C80027900024EFAC082C08375E1F1E6
:1051330090099FE0605B14600914605F146057146A
:10514300705E121389900995E0F97A967B0912151E
:105153005D7AD67BBE7C897D8E1215937A557B55FD
:105163007C557D001215699009A0E0F91215757937
:10517300011215CF900993E0F8A3E0C82416F58235
:10518300E83400F58374A1F0A37413F07900024EA0
:10519300FA12138F80AF12139580AA12139B80A566
:1051A300791280EA74F012245A75D90D900980E0BF
:1051B300A2E0E4331313F8900995E0C4333354C0E9
:1051C300484401F5D97893790988828983A3A3A3F5
:1051D300E0F5D988828983A3A882A983E8649970BA
:1051E30003E9640970E37880790988828983A3E0FD
:1051F300F5D988828983A3A882A983E8648670038A
:10520300E9640970E575E195900980E0F97A817B9D
:1052130009121563900E0B7435F0A37413F0A37485
:1052230097F0A37414F0A37497F0A37414F0A37409
:1052330097F0A37414F0A3743BF0A37413F0A37456
:1052430097F0A37414F0A37453F0A37413F0900EA7
:10525300197497F0A37414F0A37497F0A37414F063
:10526300A37497F0A37414F0A37497F0A37414F0C9
:10527300A37497F0A37414F0A37497F0A37414F0B9
:1052830090099FE064019009937012E0F8A3E0F5A0
:10529300838882A3A37508007509088010E0F8A32A
:1052A300E0F5838882A3A3750804750900750A00D5
:1052B300750B00780812220E750CFF750DFF750E25
:1052C300FF750F007808790C122274900993E0F8A7
:1052D300A3E0C8240EF582E83400F583780812228F
:1052E300E2900993E0F8A3E0C82414F582E83400BF
:1052F300F5837413F090084D7402F002510C74F7A7
:1053030012245A9009A5E02407F5D9900995E0C421
:10531300333354C0F5D97893790988828983A3A359
:10532300A3E0F5D988828983A3A882A983E8649935
:105333007003E9640970E39009A5E0601F7893792D
:1053430009FAE82413F582E93400F583E0F5D988F6
:10535300828983A3A882A9831AEA70E69009C5E02B
:105363002407F5D9900995E0C4333354C04404F5B8
:10537300D97893790988828983A3A3A3E0F5D9888F
:10538300828983A3A882A983E864997003E96409E5
:1053930070E39009C5E0601F78937909FAE8243334
:1053A300F582E93400F583E0F5D988828983A3A8DF
:1053B30082A9831AEA70E675E195900E0B7441F0A9
:1053C300A37413F0A37497F0A37414F0A37497F069
:1053D300A37414F0A37497F0A37414F0A3743BF0B4
:1053E300A37413F0A37497F0A37414F0A37453F08D
:1053F300A37413F0900E197497F0A37414F0A374AC
:1054030097F0A37414F0A37497F0A37414F0A37427
:1054130097F0A37414F0A37497F0A37414F0A37417
:1054230097F0A37414F0900993E0F8A3E0C8240E56
:10543300F582E83400F58374FFF0A3F0A3F0A3F042
:10544300900993E0F8A3E0C82414F582E83400F54A
:10545300837412F090084D7401F0FF02252C74F749
:1054630012245A9009A5E02407F5D9900995E0C4C0
:10547300333354C04402F5D97893790988828983F8
:10548300A3A3A3E0F5D988828983A3A882A983E88B
:1054930064997003E9640970E39009A5E0601F78DB
:1054A300937909FAE82413F582E93400F583E0F5EA
:1054B300D988828983A3A882A9831AEA70E675E151
:1054C30095900E0B744DF0A37413F0A3744DF0A3D9
:1054D3007413F0A3744DF0A37413F0A3744DF0A3ED
:1054E3007413F0A3744DF0A37413F0A3744DF0A3DD
:1054F3007413F0A37453F0A37413F0900E197497FC
:10550300F0A37414F0A37497F0A37414F0A3749726
:10551300F0A37414F0A37497F0A37414F0A3749716
:10552300F0A37414F0A37497F0A37414F090099388
:10553300E0F8A3E0C8240EF582E83400F58374FF95
:10554300F0A3F0A3F0A3F0900993E0F8A3E0C8243C
:1055530014F582E83400F5837414F090084D740454
:10556300F002582874F712245A9009A5E02407F58D
:10557300D9900995E0C4333354C04406F5D97893E0
:10558300790988828983A3A3A3E0F5D988828983D3
:10559300A3A882A983E864997003E9640970E3907E
:1055A30009A5E0601F78937909FAE82413F582E9E5
:1055B3003400F583E0F5D988828983A3A882A9837F
:1055C3001AEA70E69009C5E02407F5D9900995E039
:1055D300C4333354C04404F5D97893790988828954
:1055E30083A3A3A3E0F5D988828983A3A882A9838F
:1055F300E864997003E9640970E39009C5E0601FEA
:1056030078937909FAE82433F582E93400F583E0E5
:10561300F5D988828983A3A882A9831AEA70E675DB
:10562300E195900E0B7447F0A37413F0A37497F0F5
:10563300A37414F0A37497F0A37414F0A37497F0F5
:10564300A37414F0A37497F0A37414F0A37497F0E5
:10565300A37414F0A37453F0A37413F0900E19748D
:1056630097F0A37414F0A37497F0A37414F0A374C5
:1056730097F0A37414F0A37497F0A37414F0A374B5
:1056830097F0A37414F0A37497F0A37414F0900923
:1056930093E0F8A3E0C8240EF582E83400F58374A0
:1056A300FFF0A3F0A3F0A3F0900993E0F8A3E0C800
:1056B3002414F582E83400F5837415F090084D74D2
:1056C30003F0025828C082C083900993E0F8A3E056
:1056D300C82406F582E83400F583E4024EF774F734
:1056E30012245A90087BE0F875F003A4C8AAF02AA4
:1056F300F9747D28F8740839F9E82405FAE93400C7
:10570300FB8A828B83E0FCA3E0FD88828983A3A3C9
:10571300A3A3A3A3A3A3A3ECF0A3EDF0888289839F
:10572300A3A3A3A3A3A3A3E024FFF8A3E034FFF957
:105733008A828B83E8F0A3E9F002582874F71224D5
:105743005AEAFEEBFF9061D0E0600302581C75D962
:105753000E75D90375D904EE248BF582EF3400F569
:1057630083E5822408F8E5833400F9E0F5D9A3E85A
:1057730065827003E9658370F2EE2483F582EF346A
:1057830000F583E5822404F8E5833400F9E0F5D9D4
:10579300A3E865827003E9658370F275E195790882
:1057A300EE248BFAEF3400FB1214437904EE2483C6
:1057B300FAEF3400FB1214437C00EEF8EFF9ECFA35
:1057C300C3E49AFA95E0FBEE2AFAEF3BFBEA248A5C
:1057D300F582EB3400F583E0C0E0E824AAF582E922
:1057E3003400F583D0E0F00C88828983A3A882A9D2
:1057F30083ECC3940840C7EE246FF582EF3400F5C1
:1058030083E0F8A3E0F9EE2471F582EF3400F58329
:10581300E8F0A3E9F07901800279008008F0EEA2B4
:10582300E092AF79007F0102252CC082C08375D935
:105833000275D90375D90575E195EA246FF582EBF5
:105843003400F583E0F8A3E0F9EA2471F582EB3440
:1058530000F583E8F0A3E9F07901024EFA74F61239
:10586300245AEAFEEBFF9009F07406F07508F07510
:105873000909780812266D7C01790312148B7402CE
:1058830012241975D90675D9037582F0758309E059
:10589300F5D9A3E58264F57004E583640970F075B6
:1058A300E19590084DE06408701EEE246FF582EFD9
:1058B3003400F583E0F8A3E0F9EE2471F582EF34C8
:1058C30000F583E8F0A3E9F07901025B2E74F61288
:1058D300245AEAFEEBFF9061D0E0706678019009EC
:1058E300F0740BF090084DE0640770197508F075BB
:1058F3000909780812266D7C01790312148B74024E
:105903001224197805740128F5D975D9037582F025
:10591300758309E8FAE0F5D9A31AEA70F875E195F9
:10592300EE246FF582EF3400F583E0F8A3E0F9EE9F
:105933002471F582EF3400F583E8F0A3E9F07901EF
:1059430080027900025B2E74F712245AEAFEEBFF01
:1059530075D90375D90375D90DEE24DDF582EF34BE
:1059630000F583E0F5D975E1957904121599EE24D4
:105973006FF582EF3400F583E0F8A3E0F9EE2471CC
:10598300F582EF3400F583E8F0A3E9F079010258DA
:105993002874F612245AEAFEEBFF9061D0E0F87403
:1059A30080C398FAEE2482F582EF3400F583E06039
:1059B30004780480027800E8240BF8EAC3985003C3
:1059C300025A597D099009F0EDF0EE24E2F8EF3424
:1059D30000F97AF17B097C0888828983E08A828BCB
:1059E30083F088828983A3A882A9838A828B83A375
:1059F300AA82AB831CEC70E0EE2482F582EF3400C4
:105A0300F583E0601D7508F0750909780812266DA5
:105A13007C097903EEFAEFFB12148B74021224193A
:105A23007D0D74012DF5D975D9037582F075830940
:105A33008D08E0F5D9A31508E50870F675E19579A9
:105A430004121599EE241DF582EF3400F583E4F07A
:105A5300A3F0790180027900025B2E74F612245AB6
:105A6300EAFEEBFF9061D0E0F87480C398FAEE246D
:105A730082F582EF3400F583E060047804800278D5
:105A830000E82408F8EAC3985003025B2C780690D8
:105A930009F0740CF090086AE09009F1F090086B3B
:105AA300E09009F2F090086CE09009F3F090086D33
:105AB300E09009F4F090086EE09009F5F0EE24828E
:105AC300F582EF3400F583E0601B7508F075090972
:105AD300780812266D7C067903EEFA12148B740291
:105AE300122419780A740128F5D975D9037582F03F
:105AF3007583098808E0F5D9A31508E50870F675DC
:105B0300E1957904121599EE246FF582EF3400F5CF
:105B130083E0F8A3E0F9EE2471F582EF3400F58316
:105B2300E8F0A3E9F07901800279007F0202252CD5
:105B330074F612245AEAFEEBFF9061D0E0F8748009
